:020000040800F2
:100000000080002091080008F5050008F7050008A9
:10001000F9050008FB050008FD05000800000000C8
:10002000000000000000000000000000FF050008C4
:10003000010600080000000003060008050600088D
:10004000AB080008AB080008AB080008AB080008C4
:10005000AB080008AB080008AB080008AB080008B4
:10006000AB080008AB080008AB080008AB080008A4
:10007000AB080008AB080008AB080008AB08000894
:10008000AB080008AB080008AB080008AB08000884
:10009000AB080008AB080008AB080008AB08000874
:1000A000AB080008AB080008AB080008AB08000864
:1000B000AB080008AB080008AB080008AB08000854
:1000C000AB080008AB080008AB080008AB08000844
:1000D000AB080008AB080008AB080008AB08000834
:1000E000AB080008AB080008AB080008AB08000824
:1000F000AB080008AB080008AB080008AB08000814
:10010000AB080008AB080008AB080008AB08000803
:10011000AB080008AB080008AB080008AB080008F3
:10012000AB080008AB080008AB080008AB080008E3
:10013000AB080008AB080008AB080008AB080008D3
:10014000AB080008AB080008AB080008AB080008C3
:10015000AB080008AB080008AB080008AB080008B3
:10016000AB080008AB080008AB080008AB080008A3
:10017000AB080008AB080008AB080008AB08000893
:10018000AB080008AB080008DFF80CD002F0F8FE5E
:10019000004800476B0300080080002070B54FF452
:1001A000427002F06BFD00284AD0132812D01728A5
:1001B00015D01C2852D1002178A002F013FF002096
:1001C00001F0C5FD012849D1BDE87040002177A0AC
:1001D00002F008BFBDE87040002001F003BD4FF4FD
:1001E0000274204602F04AFDC00707D0002172A029
:1001F00002F0F8FE0121204602F05BFD4FF40052B0
:100200007149002001F075FE020027D06F48406858
:1002100008256F4CB5EB106F06D16B49204600F0F6
:10022000E5FA6CA002F0DEFE6068B5EB106F15D148
:100230006CA002F0D7FE2046BDE8704000F009BB7C
:1002400020234FF4FB720121002001F04EFC002816
:1002500004D0002166A002F0C5FEFEE770BD10B517
:1002600086B06849002002F0D4FC6649012002F003
:10027000D0FC03A9082002F0CCFB03A962A002F085
:10028000B1FE604CE078627921798DE80700A378AF
:100290006278217862A002F0A5FE607A0090237A4D
:1002A000E279A17968A002F09DFE607C0090237C39
:1002B000E27BA17B69A002F095FE607B0090237B2E
:1002C000E27AA17A6AA002F08DFE607D0090237D23
:1002D000E27CA17C6BA002F085FE6FA002F082FEA2
:1002E00006B010BD1FB5734B0FCB8DE80F007249E0
:1002F000724802F004FA7249724802F00DFA72492B
:10030000724802F027FA6946012002F082FB401C85
:1003100003D16FA002F066FEFEE71FBD10B501F02D
:1003200044FB00F02BF971A002F05CFE6FA002F01C
:1003300059FE6FA002F056FE704802F053FE70485E
:1003400002F050FE6F4802F04DFE6F4802F04AFE88
:100350006A4802F047FE14A002F044FE02F026F9BB
:10036000BDE81040A82000F04FB908B5FFF7D6FF50
:10037000FFF7B8FF69460F2002F04BFB401C08D086
:100380009DF800000028F5D0FFF769FFFFF706FF92
:10039000FCE75EA002F026FEFEE7000025643A437B
:1003A0006C6F7365576169740D0A000025643A43E8
:1003B0006C6F7365640D0A0025643A436F6E6E6559
:1003C000637465640D0A0000001000200010002016
:1003D000000001086F7665727772697465206F6B33
:1003E000000000006578637574652061707000001E
:1003F00025643A536F636B6574204572726F720D9A
:100400000A000000000000200D0A3D3D3D2025733C
:10041000204E455420434F4E46203D3D3D0D0A00A1
:100420004D41433A20253032583A253032583A254A
:100430003032583A253032583A253032583A253041
:1004400032580D0A000000005349503A2025642E0E
:1004500025642E25642E25640D0A00004741523A7A
:100460002025642E25642E25642E25640D0A0000A7
:100470005355423A2025642E25642E25642E25648A
:100480000D0A0000444E533A2025642E25642E2583
:10049000642E25640D0A00003D3D3D3D3D3D3D3D42
:1004A0003D3D3D3D3D3D3D3D3D3D3D3D3D3D0D0ADF
:1004B0000000000088340008BB260008B3260008AE
:1004C000CD260008C32600087B26000895260008D4
:1004D00057495A4348495020496E697469616C69AB
:1004E0007A6564206661696C2E0D0A000C000000BC
:1004F0001B5B313B34303B33326D000094350008D8
:1005000098340008EC34000840350008556E6B6ED6
:100510006F776E20504859204C696E6B2073746160
:100520007574732E0D0A000010B50121084600F005
:1005300047FC0121102000F06BFC2C4C07220A2103
:10054000204600F0F8FA20460722BDE810400921B5
:1005500000F0F1BA1CB54FF4C060009002208DF895
:1005600004008DF8050000208DF8060001208DF8AC
:10057000070069461D4800F055FA1CBD1FB5FFF77E
:10058000D3FFFFF7E7FF4FF4E13000900020ADF814
:100590000600ADF80400ADF80800ADF80C000C2022
:1005A000134CADF80A006946204600F008FD002211
:1005B00040F22551204600F012FE0121204600F0B5
:1005C0006FFD4021204600F029FE1FBD70B5084D8B
:1005D0000446C1B2284600F089FD8021284600F07B
:1005E00016FE0028F9D0204670BD00000000024031
:1005F000001001407047FEE7FEE7FEE7FEE77047A8
:10060000704770477047000010B504466FF0040053
:1006100000F096F92948E10801EB41020170C2EBB4
:10062000C1114FF6FF7202EAC101418010BD23499A
:10063000097848434FF0E021486100228A61086947
:1006400040F0010008610869C30701D0C003FAD572
:10065000086920F0010008618A61704717494988DC
:1006600048434FF0E021486100228A61086940F068
:10067000010008610869C30701D0C003FAD5086901
:1006800020F0010008618A61704770B54FF407756A
:10069000B0FBF5F1CCB2B0FBF5F105FB110604E0BF
:1006A0002846FFF7DBFF641EE4B2002CF8D1002ED1
:1006B00003D03046BDE87040D0E770BD1800002080
:1006C000006870473D49884201D2002070473C498C
:1006D000884201D2082070473A49884201D210204E
:1006E00070473949884201D21820704737498842FB
:1006F00001D2202070473649884201D22820704715
:100700003449884201D2302070473349884201D2AF
:10071000382070473149884201D240207047304923
:10072000884201D2482070472E49884201D2502089
:100730007047582070472DE9F04117460E46044691
:10074000B0F1006F2ED3A0072CD100F043FF0020A2
:1007500000F029FF2448254604EB870784420DD387
:1007600017E02868401C08D02846FFF7ABFF02219D
:1007700000F06BFF082801D00DE02D1DBD42F0D325
:1007800007E02046316800F0E0FF082803D1241D6F
:10079000361DBC42F5D3012000F005FFBDE8F04155
:1007A00000F024BFBDE8F08110B5002303E010C8BD
:1007B00041F823405B1C9342F9D310BD0040000870
:1007C0000080000800C000080000010800000208C6
:1007D00000000408000006080000080800000A08DD
:1007E00000000C0800000E080000FF1F2DE9F04774
:1007F0000025904606460C462F464FF40079DFF858
:100800007CA019E0E078A178000640EA0140617818
:100810004A4640EA012114F8040B08434AF825002F
:100820006D1CADB2954206D1002514493046FFF744
:1008300082FF06F500663F1D4745E3D3002D06D035
:100840002A463046BDE8F0470C49FFF774BFBDE8C3
:10085000F08710B501680A4A1140B1F1005F0CD170
:100860004168084C2160006880F3088806A002F007
:10087000B9FB2068BDE81040004710BD8000002093
:100880000000FE2F1C0000203737373737000000EC
:100890000648804706480047FEE7FEE7FEE7FEE71A
:1008A000FEE7FEE7FEE7FEE7FEE7FEE7AB1900081E
:1008B000890100082849084328490860704730B575
:1008C0000F22C47801780123FCB1244C246801F183
:1008D000E02104F4E064C4F5E064C4F30724C4F147
:1008E0000405E2404478AC408578154025432A0150
:1008F00081F80024007800F01F018B40400980003F
:1009000000F1E020C0F8003130BD01F01F0083404D
:100910004809800000F1E020C0F8803130BD104A65
:10092000114001430D48001F016070470B4A121D22
:100930000029116801D0014300E081431160704734
:100940004FF0E0210428086903D020F0040008617A
:10095000704740F00400FAE70000FA050CED00E0F3
:1009600080FFFF1F7C4910B5884206D1012108464F
:1009700000F058FA002101204FE07849884206D162
:100980000121022000F04EFA0021022045E07449C6
:10099000884206D10121042000F044FA00210420FD
:1009A0003BE07049884206D10121082000F03AFA64
:1009B0000021082031E06C49884206D10121102035
:1009C00000F030FA0021102027E06849884206D163
:1009D0000121202000F026FA002120201DE064499A
:1009E000884206D10121402000F01CFA002140205D
:1009F00013E06049884206D10121802000F012FAFC
:100A00000021802009E05C4988420AD18415012137
:100A1000204600F007FA00212046BDE8104000F013
:100A200001BA10BDF0B50023012403270D6804FAB4
:100A300003F21540954242D1D0F800C05E0007FA9B
:100A400006F52CEA050CC0F800C091F804C0D0F8F7
:100A500000E00CFA06FC4CEA0E0CC0F800C091F85D
:100A600004C0BCF1010F02D0BCF1020F1FD1D0F8BD
:100A700008C02CEA050CC0F808C091F805C0D0F8F1
:100A800008E00CFA06FC4CEA0E0CC0F808C0D0F8DE
:100A900004C02CEA020CC0F804C0426891F806C0F9
:100AA0000CFA03FC1FFA8CFC42EA0C024260C2689A
:100AB000AA43C260CA79C568B2402A43C2605B1CBF
:100AC000102BB3D3F0BD4FF6FF710160002101710F
:100AD00041718171C171704708B541F48032009253
:100AE000C261C1610099C161C169C069009008BD5E
:100AF0000246002012690A4200D0012070470069B6
:100B000080B270470246002052690A4200D001209C
:100B10007047406980B270470183704741837047D6
:100B20000AB1018370474183704741617047426950
:100B30004A40426170474B07DB0E9A40C90810B526
:100B400000EB8100016A0F249C40A1430162016A0D
:100B50001143016210BD0000000002400004024089
:100B600000080240000C0240001002400014024045
:100B700000180240001C024000200240EA480168C0
:100B800041F001010160E84A002108321160026869
:100B9000E64B1A400260031DE54A1A60026822F41F
:100BA00080220260E0480C3001607047DE4900227C
:100BB000891C0A70087070470246002051090129FB
:100BC0000CD002290CD0D8497431096802F01F02F8
:100BD000012393400B4200D001207047D249F4E733
:100BE000D1497031F1E718B500204FF4A0640090AE
:100BF0003120FFF7E1FF0099491C0091A14201D08B
:100C00000028F5D03120FFF7D7FF002800D00120C1
:100C100018BDC5490A6822F0F80242EAC00008601F
:100C20007047C44908607047BF49002270310A709C
:100C30000A70012802D0042801D1052008707047ED
:100C4000BD490860704741EA82115A0810B5BB4B94
:100C5000029C03EB02421143014341EA0460B249A2
:100C6000091D086010BDB34908667047800140EA5D
:100C70000170AD49843108607047AE49886670479D
:100C8000AC49C8647047A84A08321368084323F087
:100C9000EC63184310607047A34A08321368084396
:100CA00023F078431843106070479F4A0832116858
:100CB00021F003010143116070479B480830006830
:100CC00000F00C007047984A0832116821F0F001DA
:100CD000014311607047944A0832116821F4E051D1
:100CE000014311607047904908310A6822F460425C
:100CF00042EAC0000860704770B58B4A083211683C
:100D00008F4C11F00C0104D06610042903D008297F
:100D100003D004601BE0066019E08349091D0B68DD
:100D2000C3F380550B6803F03F0315B1B6FBF3F333
:100D300001E0B4FBF3F30C680968C4F3881463435F
:100D4000C1F30141491C4900B3FBF1F10160116895
:100D50000F2303EA11117B4B5C5C0168E1404160A9
:100D60001468072505EA94241C5D21FA04F48460C4
:100D7000126805EA52329A5CD140C16070BDC0F37E
:100D80000121032908D1684A0832116821F4F813B7
:100D90006D49014019431160634970310A68C0F31D
:100DA0000B0002430A60704763494439086070478A
:100DB00061494039086070475E49C1F85C0170477D
:100DC000594A30320029116801D0014300E08143C3
:100DD00011607047544A34320029116801D0014330
:100DE00000E08143116070474F4A38320029116892
:100DF00001D0014300E08143116070474A4A40320C
:100E00000029116801D0014300E08143116070475F
:100E1000454A44320029116801D0014300E0814372
:100E200011607047404A10320029116801D0014317
:100E300000E08143116070473B4A14320029116879
:100E400001D0014300E0814311607047364A1832F7
:100E50000029116801D0014300E08143116070470F
:100E6000314A20320029116801D0014300E081435A
:100E7000116070472C4A24320029116801D00143C7
:100E800000E0814311607047274A50320029116801
:100E900001D0014300E0814311607047224A54327F
:100EA0000029116801D0014300E0814311607047BF
:100EB0001D4A58320029116801D0014300E08143E6
:100EC00011607047184A60320029116801D001434F
:100ED00000E0814311607047134A643200291168B1
:100EE00001D0014300E08143116070470E4A0D328A
:100EF0000029117801D0014300E08143117070474F
:100F000009487430016841F0807101607047014602
:100F1000054A00200C3212680A4200D001207047B6
:100F200001490E310870704700380240FFFFF6FE9D
:100F30001030002400004742800E47420000FFFFAF
:100F40000024F40020000020FFFCFF0FC74910B56B
:100F5000884206D101211020FFF78CFF00211020CC
:100F600028E0C349884202D101214C0410E0C14964
:100F7000884202D101218C040AE0BF49884202D193
:100F80000121CC0404E0BD4988420AD101210C05AD
:100F90002046FFF765FF2046BDE810400021FFF71F
:100FA0005FBFB749884209D101212020FFF762FFC6
:100FB00000212020BDE81040FFF75CBF10BD7FB5C9
:100FC0000446008A0D4620F44051E88808432082F8
:100FD000A08941F20C618843A9882A8911436A8952
:100FE00002431143A181A08A20F44071A8890843DB
:100FF000A0826846FFF780FE9C48844202D0A04849
:10100000844201D1039800E00298A189090400EB11
:10101000C00101EB0010296801D5490000E08900FA
:10102000B0FBF1F26420B2FBF0F109010B096FF0A3
:1010300018056B4302EB8302A3891D044FF03203B2
:1010400006D503EBC202B2FBF0F000F0070005E0AA
:1010500003EB0212B2FBF0F000F00F000843208116
:101060007FBD4FF41651016000218180C180018154
:101070000C2242818181704710B5028A4C8822F48B
:1010800070630A8822438C88C9880C4322431A4320
:10109000028210BD0021018041808180C1807047A3
:1010A0000029818902D041F4005101E021F400516E
:1010B00081817047028B02F47F420283028B0A43D4
:1010C000028370470029818902D041F4004101E088
:1010D000C1F30E01818170470029818A02D041F459
:1010E000006101E021F4006181827047C1F30801D1
:1010F000818070478088C0F308007047028A22F020
:101100000F020282028A0A43028270470029818903
:1011100002D041F0020101E021F00201818170471B
:10112000828922F40062828182890A438281704727
:10113000028A22F020020282028A0A430282704757
:101140000029018A02D041F4804101E021F480416C
:1011500001827047818941F0010181817047002936
:10116000818A02D041F0080101E021F0080181826A
:101170007047028BD2B20283028B42EA01210183C3
:1011800070470029818A02D041F0200101E021F05E
:101190002001818270470029818A02D041F010012C
:1011A00001E021F0100181827047828A22F004025E
:1011B0008282828A0A43828270470029818A02D011
:1011C00041F0020101E021F0020181827047002A12
:1011D000828A01D00A4300E08A438282704710B5B8
:1011E000C1F3421301F01F040121A140012B07D0DC
:1011F000022B07D01430002A026805D00A4304E00D
:101200000C30F8E71030F6E78A43026010BD024662
:10121000002012880A4200D001207047C943018093
:10122000704730B501F01F0201240025C1F34213BD
:1012300004FA02F2012B0FD0022B0FD0838A4FEA5F
:1012400011210088134204FA01F400EA040001D0DD
:1012500000B10125284630BD8389F0E7038AEEE717
:101260000A0A01219140C9430180704700100140E2
:101270000044004000480040004C00400050004046
:1012800000140140B64910B588420AD184140121E6
:101290002046FFF7EFFD2046BDE810400021FFF794
:1012A000E9BDB049884202D10121041404E0AE49ED
:1012B00088420AD10121C4132046FFF7D1FD204600
:1012C000BDE810400021FFF7CBBD10BD30B502884E
:1012D0004C8802F441530A88CD8822438C882C43E1
:1012E00022430C8922434C8922438C892243CC8996
:1012F00022431A430280828B22F400628283098A8D
:10130000018230BDF0B502220023858B01244FF20B
:101310004006354085830284858B8E68022E3ED040
:101320008A8802B10224914A13681B0203D513680C
:1013300023F4000313608D4A7C3213681268C3F3F0
:1013400088138A4EC2F30272361F3668884F06F041
:101350003F06B7FBF6F65E43B6FBF2F2CB88B3F579
:10136000007F2CD06301B2FBF3F200BF02EB8202DC
:101370008B685200B2FBF3F2521D92B20A23B2FB09
:10138000F3F202F00103D21A4FF6FF74C2F34F02D8
:1013900004EA0323941EFE2C01D302220023CC88EE
:1013A0001A43144304840A884B881A438B8889891A
:1013B0000B431A432A4342F400618183F0BD120AB1
:1013C000D4E70021018041808180C1800181418179
:1013D0008181C18107210182704700210180418004
:1013E0008180C1800222826081817047002901884A
:1013F00002D041F0400101E021F04001018070473E
:101400000029818B02D041F4806101E021F48061E8
:1014100081837047028822F40062028002880A43B6
:1014200002807047B1F5804F018803D021F48041DC
:101430000180704741F48041FAE7A1F57E420188BE
:10144000FF3A02D041F4807101E021F48071018003
:1014500070470029818802D041F0040101E021F0A9
:101460000401818070470029818802D041F0100179
:1014700001E021F010018180704730B5838B00229C
:101480004FF240042340838302230384848B0B8820
:101490004FF48075B3F5007F00D003B92A464B881E
:1014A0008D8889892B4311430B43234343F4006107
:1014B000818330BD80897047818170470029018810
:1014C00002D041F4005101E021F400510180704745
:1014D000018841F4805101807047012901D0008BBF
:1014E0007047808A7047008A7047002A828801D03E
:1014F0000A4300E08A4382807047090901238B4038
:10150000002A828899B201D00A4300E08A4382808F
:1015100070470246002012890A4200D0012070471D
:10152000C9430181704710B501F00F040122034641
:1015300002FA04F4002009098A4091B29A88A4B200
:101540000A401989214202D0002A00D0012010BD92
:1015500001F00F0201219140C94301817047000051
:101560000030014000380040003C00400838024094
:1015700000127A00DF4908707047DE4900280868C9
:1015800002D040F4807001E020F480700860704761
:10159000D8490028086802D040F4007001E020F427
:1015A000007008607047D3490028086802D040F4F2
:1015B000806001E020F4806008607047CD480168D9
:1015C00041F4006101607047CA48016841F48051EC
:1015D00001607047C74810300068002805DAC54828
:1015E000C549001D0160C54901607047C148103000
:1015F000016841F0004101607047BE4908200C318C
:101600000A68D20301D5012070470A68D20601D5C5
:10161000052070470A6812F0EF0F01D006207047CE
:1016200009688907FBD50720704708B508208DF8A1
:10163000000000BFFFF7E1FF8DF800009DF80000FB
:101640000128F7D09DF8000008BD70B506460025BA
:1016500029B1012928D0022929D04FF44075FFF77C
:10166000E4FF08281FD1A34C1034206820F44070F8
:101670002060206828432060206820F0F800206067
:10168000206846F0020108432060206840F4803062
:101690002060FFF7CAFF216821F002012160216864
:1016A00021F0F801216070BD4FF48075D7E74FF449
:1016B0000075D4E730B504460025FFF7B6FF2CB11E
:1016C000012C1DD0022C1ED04FF44075082816D1D5
:1016D000884C1034206820F4407020602068284333
:1016E0002060206840F004002060206840F48030D2
:1016F0002060FFF79AFF216821F00401216030BDCE
:101700004FF48075E2E74FF40075DFE7F0B515465A
:101710001E460746FFF789FF082815D1754C10347F
:10172000206820F440702060206840F44070206001
:10173000206840F0010020603D607E60FFF775FF8B
:10174000216821F001012160F0BD70B50D4606460B
:10175000FFF76BFF082814D1664C1034206820F482
:1017600040702060206840F400702060206840F0E5
:10177000010020603560FFF758FF216821F001016A
:10178000216070BD70B50D460646FFF74EFF082874
:1017900014D1584C1034206820F440702060206828
:1017A00040F480702060206840F0010020603580A7
:1017B000FFF73BFF216821F00101216070BD70B58A
:1017C0000D460646FFF731FF082812D1494C103468
:1017D000206820F44070206020682060206840F07D
:1017E000010020603570FFF720FF216821F0010122
:1017F000216070BD3F4814300068C00705D03D48E7
:101800003F49083001603F49016070473948143052
:10181000016841F001010160704730B50D46044692
:10182000FFF703FF082807D13248163001880DB1B1
:10183000A14300E02143018030BD10B50446FFF70D
:10184000F4FE082802D12B481530047010BD70B585
:1018500015460C460646FFF7E8FE082808D125493C
:101860001431087800F00F0004432C4334430C700B
:1018700070BD204914310A7822F00C020A700A78EF
:1018800002430A7070471B481430017841F002018E
:101890000170CAE6174814300068C0F3471070475B
:1018A0001448163000887047124900201531097815
:1018B000AA2900D0012070470E481430007800F0AB
:1018C0000C0070470B4A10320029116801D0014307
:1018D00000E08143116070470146064A00200C3247
:1018E00012680A4200D00120704702490C3108609A
:1018F00070470000003C024023016745AB89EFCDF3
:101900003B2A19087F6E5D4C0CB5002054490190AC
:1019100000900A6842F480320A604FF4A0630A68BB
:1019200002F400320092019A521C0192009A12B9FC
:10193000019A9A42F3D10A68920334D501200090AB
:1019400047484030026842F08052026045480268D1
:1019500042F4804202604248083002680260026835
:1019600042F400420260026842F4A0520260031F87
:101970003D4A1A600A6842F080720A600A68920161
:10198000FCD53A4A40F205611160016821F003017B
:101990000160016841F0020101600168C1F3810149
:1019A0000229FAD10CBD00900CBD314810B5016878
:1019B00041F4700101602A48016841F001010160B1
:1019C000274A00210832116002682A4B1A4002603F
:1019D000031D294A1A60026822F48022026020480E
:1019E0000C300160FFF790FF21494FF00060803913
:1019F000086010BD70B51A4C083420681F4A10F0FA
:101A00000C011F4804D05510042903D0082903D025
:101A100002601BE0056019E01149091D0B68C3F362
:101A200080560B6803F03F0316B1B5FBF3F201E0FB
:101A3000B2FBF3F20B680968C3F388135A43C1F38E
:101A40000141491C4900B2FBF1F1016021680C4AD7
:101A5000C1F30311121D515C0268CA40026070BDDF
:101A6000003802400070004008544007003C02402B
:101A700088ED00E0FFFFF6FE103000240024F400A3
:101A80003000002070B50446082802D94FF0FF301E
:101A900070BD4FF4847000EB44100546102101F036
:101AA00008F9284601F0EAF80028FAD14FF402704C
:101AB00000EB44101F2101F0FCF8FA480121A1407D
:101AC00082888A43F8498280002021F81400F54971
:101AD000891D08554FF4427000EB4414204601F074
:101AE000CDF80028FAD1012070BD2DE9F0411D4646
:101AF00017460E460446082803D94FF0FF30BDE8CC
:101B0000F081012E06D0022E04D0042E02D06FF0F8
:101B10000400F4E715F0060F6FF00500EFD185B172
:101B2000012E02D0022E0CD103E015F0210FE6D0D9
:101B300007E0A90601D52906E1D5E90601D5290660
:101B4000DDD52046FFF79EFF600105F0F0014FF064
:101B500001083143083001F0ACF8D24E57B937884C
:101B6000781C80B2A0F57F413080F03902D14FF46B
:101B7000404030804FF48160390A00EB441001F09E
:101B800098F84FF4A160F9B200EB441001F091F81D
:101B90004FF4847000EB44100746012101F089F8EE
:101BA000384601F06BF80028FAD105F00100718881
:101BB000A04008437080B18808FA04F08143B180E6
:101BC000B949002021F81400B649891D08554FF481
:101BD000427000EB4415284601F050F80028FAD076
:101BE00060B28CE770B50546082802D94FF0FF3087
:101BF00070BD6801083001F041F800F00F000128C5
:101C000002D06FF0040070BD4FF4427000EB45103D
:101C1000064601F033F8132802D06FF0020070BDC1
:101C20004FF4847000EB45100446022101F041F8A6
:101C3000204601F023F80028FAD103E0204601F005
:101C40001DF830B1304601F019F81428F6D1012002
:101C500070BD2846FFF716FF6FF0030070BD2DE939
:101C6000F04116460F460446082802D94FF0FF30CF
:101C700045E760014FF00108083000F0FFFF00F079
:101C80000F00012802D06FF0040038E74FF44270D3
:101C900000EB4410054600F0F1FF132802D06FF06E
:101CA00002002CE738787978BA7801EB002102EB52
:101CB000012100EB0120411C2CD058B36EB340F63B
:101CC000084000EB44100422394601F035F841F297
:101CD0000800310A00EB441000F0EBFF41F208105D
:101CE000F1B200EB441000F0E4FF4FF4847000EB1D
:101CF00044100646042100F0DCFF304600F0BEFF31
:101D00000028FAD1674908FA04F04988084213D03C
:101D10000020F4E66FF00B00F1E66FF00A00EEE64B
:101D2000204600F0ABFF00070AD52046082100F04E
:101D3000C0FF6FF00C00E2E64FF4027000EB4414B9
:101D4000284600F09BFF1728EAD10120D7E670B59E
:101D50000446082802D94FF0FF3070BD600101250C
:101D6000083000F08BFF00F00F00012801D0A81F01
:101D700070BD4FF4847000EB44100646082100F05B
:101D800098FF304600F07AFF0028FAD14548A54078
:101D90008188A9438180408805420CD0002070BD15
:101DA000304600F06BFF00070DD52046FFF76AFEB6
:101DB0006FF00C0070BD4FF4027000EB44164FF44E
:101DC000427000EB4415284600F058FF0028E7D188
:101DD000012070BD2DE9F05F15468B4606460828A8
:101DE00003D94FF0FF30BDE8F09F700101240830A7
:101DF00000F044FF00F00F00012801D0A01FF2E71F
:101E000075B14FF4427000EB4610074600F036FF04
:101E10006FF0060A172806D01C2804D05046E2E7C7
:101E20006FF00D00DFE7DFF87C80B440B8F8040005
:101E3000044213D04FF4027000EB4610814600F0CC
:101E40001DFF00F01F00C10624D54846102100F0F8
:101E500030FFB8F80410A143A8F8041041F6087048
:101E600000EB461000F00AFF4FF6FF7101EA8020F8
:101E7000854200D90546304600F086FF8146384647
:101E800000F0FCFE172811D01C280FD03046FFF7B9
:101E9000F9FDC3E700070FD53046FFF7F3FD6FF0FC
:101EA0000C00A0E74400002080080020B8F80200E1
:101EB000044203D04D4501D9002094E74D45DAD8BE
:101EC0002A465946304600F0AAFF4FF4847000EBD2
:101ED00046100646202100F0ECFE304600F0CEFE13
:101EE0000028FAD1B8F8041028460C43A8F804409A
:101EF00079E72DE9F74F14460546082803D94FF036
:101F0000FF30BDE8FE8F68010126083000F0B6FE04
:101F100000F00F00012801D0B01FF2E724B341F612
:101F2000086000EB451000F0A9FE4FF6FF7101EAD2
:101F30008020A04200D204464FF4427000EB4518C6
:101F400041F60870DFF818A600EB451B06FA05F904
:101F5000284600F03FFF0646404600F08FFE172857
:101F600016D01C2803D00DE06FF00D00C9E7CEB9E4
:101F7000284600F009FF0746584600F07FFEB7EB01
:101F8000802F05D12846FFF77DFD6FF00600B8E7EA
:101F9000BAF8021019EA010F02D01EB90020B0E70A
:101FA000002ED5D0A64200D23446224628460199BA
:101FB00000F064FF4FF4847000EB451005464021AB
:101FC00000F077FE284600F059FE0028FAD120469E
:101FD00097E72DE9F0479946089E15468A4604463C
:101FE000082803D94FF0FF30BDE8F08760014FF0BB
:101FF0000108083000F042FE00F00F00022804D073
:10200000042802D06FF00400EEE78DB1D9F800008B
:1020100088B19EB14FF4427000EB4410074600F0C7
:102020002DFE42280DD022280BD06FF00600DBE7F2
:102030006FF00D00D8E76FF00B00D5E76FF00A00E6
:10204000D2E740F6084000EB44100422494600F075
:1020500073FE41F20800310A00EB441000F029FE43
:1020600041F20810F1B200EB441000F022FE41F6FC
:10207000087000EB441000F001FE4FF6FF7101EA1A
:102080008020854200D9054608FA04F6DFF8D0849E
:10209000204600F079FE8146384600F0EFFD38B169
:1020A000B8F80200064206D04D4504D900209BE74F
:1020B0006FF0030098E74D45EAD82A46514620467E
:1020C00000F0ADFE4FF4847000EB44100646202172
:1020D00000F0EFFD4FF4027000EB4414304600F0C6
:1020E000CDFD0028FAD1204600F0C8FD00F01F0009
:1020F000C10605D52046102100F0DBFD284673E718
:102100000007F0D52046082100F0D3FD6FF00C0049
:102110006AE72DE9FF4F002583B09846174604462D
:10212000082803D9681E07B0BDE8F08F60014FF0A2
:10213000010A083000F0A2FD834600F00F000228DB
:1021400004D0042802D06FF00400ECE72FB1DFF8D0
:10215000149439F8140018B11EE06FF00D00E2E796
:102160004FF4427000EB44160AFA04FA204600F0DD
:1021700031FE0546304600F081FD30B1F84949880E
:102180001AEA010F06D01DB106E06FF00300CAE79E
:102190000020C8E7002DE9D0DFF8C4A300210AF130
:1021A000060A4FF484700AF804100BF007014FF090
:1021B000800B00EB4416022920D004295AD029466E
:1021C000204600F089FE29F814503046402100F0E6
:1021D00070FD304600F052FD0028FAD139F8141095
:1021E000491B0904090C29F8141005D01AF8041029
:1021F00041F001010AF80410284694E739F8140068
:102200004D4680BB08226946204600F037FE304626
:10221000402100F04EFD304600F030FD0028FAD19C
:102220009DF8001088F800109DF8011088F8011042
:102230009DF8021088F802109DF8031088F803102A
:1022400010999DF8040008809DF8051001EB00200E
:10225000109908809DF806009DF8071001EB0020FA
:1022600025F814002BE02CE02A462046049900F0C3
:1022700005FEAAE739F814004D4610BB0222694654
:10228000204600F0FBFD3046402100F012FD3046B4
:1022900000F0F4FC0028FAD19DF800009DF8011030
:1022A00001EB002080B240F2EA5125F81400884288
:1022B00005D92046FFF7E6FB6FF47A7033E70AF89A
:1022C00004B035F81450BD42CED93D46CCE72DE9D7
:1022D000F0411446082802D94FF0FF300FE44FF4C4
:1022E0000272DFF87CC202EB401742F608426FF040
:1022F000090502EB40132E0CBCF80220082943D23A
:10230000DFE801F00413171A242B323C2378012153
:102310008140012B01D023B136E01143ACF802100B
:102320002AE08A43ACF8022026E0C24002F0010015
:1023300018E041F6087101E041F6086101EB401038
:1023400000F09CFC06EA8020208015E020781F2801
:102350001AD800F01F0138460CE0384600F08EFC19
:1023600000F01F00207007E020781F280CD800F034
:102370001F01184600F09DFC012032E4184600F0D1
:102380007DFC00F01F00207028462AE42DE9F04172
:1023900015460446082802D94FF0FF3021E46001B9
:1023A00042F6087208306FF0040702EB4416082961
:1023B0006AD2DFE801F0690408101C25315E297833
:1023C00041F2086002E0297841F2085000EB441025
:1023D00000F06FFC4BE02888010A41F2082000EB76
:1023E000441000F066FC297841F20830EEE740F630
:1023F000084000EB44100422294600F09DFC36E022
:102400002888010A41F2080000EB441000F051FC5A
:10241000297841F20810D9E700F030FC00F00F00F5
:1024200001282CD1304600F029FC10B16FF00100DA
:102430001EE44FF4847000EB44100546222100F0A6
:1024400038FC4FF4027000EB44140BE0204600F01F
:1024500015FC000706D52046082100F02AFC6FF085
:102460000C0005E4284600F009FC0028EED101200C
:102470000BE400F003FC00F00F00012801D0384607
:1024800003E429783046A3E76FF0090009E470B54A
:1024900015460446082802D94FF0FF3070BD600190
:1024A00008306FF004060D2978D2DFE801F0070C40
:1024B0001114242D773D4A4E525D6B0000F0DEFB77
:1024C00000F0F00002E041F2086044E0287053E0C0
:1024D00041F208503FE041F2083000EB441000F0B8
:1024E000CDFB064641F2082000EB441000F0C6FB8D
:1024F00006EB0020287040F6084000EB4410042250
:10250000294600F0F4FB37E041F2081000EB4410DC
:1025100000F0B4FB064641F2080000EB441000F066
:10252000ADFB06EB002026E000F0A8FB00F00F005A
:1025300001282DD142F6087000EB441000F09EFBFC
:1025400019E0204600F020FC2880204600F042FCE4
:1025500028804FF4427000EB441000F08FFBB5E789
:10256000440000208008002000F088FB012805D0EE
:102570000C4830F814002880012070BD204600F07F
:1025800029FCF8E700F07AFB00F00F00012802D0E8
:10259000304670BD02E00448005D97E76FF001002F
:1025A000F7E70000800800204A00002070B588B0DE
:1025B00001210220FEF704FC01211020FEF700FC9F
:1025C00001218803FEF71AFC434D05220D21284600
:1025D000FEF7B1FA05220E212846FEF7ACFA0522D5
:1025E0000F212846FEF7A7FA4FF46040059003201C
:1025F0008DF8190002218DF8181000248DF81A406A
:102600008DF81B1005A92846FEF70CFA01208DF85D
:1026100018008DF81A40314E2D158DF81B000595C8
:1026200005A93046FEF7FEF929463046FEF774FA52
:10263000ADF800404FF48270ADF80200ADF80840EC
:10264000ADF80C40ADF804406810ADF80640ADF8A8
:102650000A00ADF80E400720214CADF81000694685
:102660002046FEF733FE01211E48FEF7F2FE01214F
:102670002046FEF7BBFE08B070BD194908310A8834
:102680009207FCD5164A0C3210800888C007FCD08F
:10269000108870471248083001888907FCD5104916
:1026A000FF220C310A800288D207FCD00888C0B211
:1026B0007047012080F310887047002080F3108855
:1026C00070474FF480610548FEF728BA4FF48061E7
:1026D0000248FEF721BA0000000402400010024048
:1026E0000038004000300140704770477047704725
:1026F0000078704701707047002070477047F84AB3
:1027000018B111B1C2E902017047AFF22300906025
:10271000AFF22900D0607047F14A18B111B1C2E997
:1027200004017047AFF23B001061AFF23D00506111
:102730007047EB4A10B51388DC05FDD518B111B10F
:10274000C2E9060110BDAFF257009061AFF25B0025
:10275000D06110BDE24A10B513889C05FDD518B1B3
:1027600011B1C2E9060110BDAFF273009061AFF282
:102770007300D06110BD10B54FF4385000F07EFAF0
:10278000C00700D0012010BD10B500244FF4385010
:1027900000F074FA10F0300F00D00124204610BD74
:1027A00010B54FF43854204600F068FA20F080014C
:1027B000204600F07EFA204600F060FA40F08001EA
:1027C0002046BDE8104000F074BA70B504464FF4DE
:1027D0003856304600F052FA41064FF0FF351AD510
:1027E00020F03800012C10D040F03801304600F0C5
:1027F00060FAFFF7D5FF304600F040FA012C07D011
:1028000000F0380038B1002070BD40F03001EDE735
:1028100000F03000F6E7284670BD10B504464FF4CE
:10282000385000F02BFAC0F38011217000F038000E
:1028300001220021202811D038280FD061701028E3
:102840000ED018280CD020280AD0A170082809D052
:10285000182807D0202805D0E17010BD6270EEE77F
:10286000A270F3E7E27010BD10B502780021012AD2
:1028700000D140214278012A06D0C2788078012A0E
:1028800005D001280BD00CE041F0380109E0012807
:1028900002D041F0080104E041F0180101E041F0EC
:1028A00010014FF4385000F004FABDE8104077E70B
:1028B00010B54FF4B05000F0E1F904464FF4C050A9
:1028C00000F0DCF904EB002080B210BD10B5C1B2FD
:1028D000040A4FF4B05000F0ECF92146BDE8104076
:1028E0004FF4C05000F0E5B910B54FF4A85000F017
:1028F000C5F900F0F0044FF4B85000F0BFF904EB54
:10290000002080B210BD10B5040A00F0F0014FF4B1
:10291000A85000F0CEF92146BDE810404FF4B85061
:1029200000F0C7B9F0B585B04FF4106406226946CF
:10293000204600F0DCF90422950102A9284600F0A7
:10294000D6F94FF4A066042203A9304600F0CFF96F
:102950004FF47067042204A9384600F0C8F98021BA
:10296000002000F0A6F9002000F088F90622694650
:10297000204600F0E1F9042202A9284600F0DCF923
:10298000042203A9304600F0D7F9042204A93846EE
:1029900000F0D2F905B0F0BD2DE9F0410D46064634
:1029A0000024FFF7BFFF4FF0FF38AEB10022B05C4C
:1029B000521C204452B244B2082AF8DB102C17DC17
:1029C000002441F60877315D07EB441000F071F9FF
:1029D000641C64B2082CF6DBCDB1002108462A5CE9
:1029E000401C114440B249B20828F8DB102902DD2E
:1029F0004046BDE8F081002441F60866295D06EBFB
:102A0000441000F056F9641C64B2082CF6DB002078
:102A1000EFE72DE9F0410C46002102464F1E084623
:102A20004FF498554FF4A056102A61D2DFE802F017
:102A3000080B1612191D212B35424549554D515A87
:102A4000FFF770FF49E014B1204604F10801BDE82A
:102A5000F041A1E72088FFF756FF3EE0FFF744FF73
:102A600005E02088FFF732FF37E0FFF721FF2080E5
:102A700033E02088010A284600F01BF9217830460F
:102A800000F017F929E0304600F0F8F8064628462D
:102A900000F0F4F806EB0020E9E711488278227094
:102AA000C27862700279A2704279E27080792071F6
:102AB000617112E0FFF774FE0FE02046FFF7D4FECD
:102AC0000BE02046FFF7A9FE07E02078BDE8F041C3
:102AD0007BE6FFF759FE07E02070002089E7000041
:102AE0005C000020FFF747FEC0B241B2491CF3D1A1
:102AF00038467EE770B504464FF4D85000F0BEF873
:102B000020704FF4D05000F0B9F805464FF4C8508B
:102B100000F0B4F805EB0020608070BD10B50446ED
:102B200001784FF4D85000F0C4F86088010A4FF4DF
:102B3000C85000F0BEF8A178BDE810404FF4D05066
:102B400000F0B7B8002000F099B810B5044630F096
:102B50003A0002D04FF0FF3010BD002000F08EF898
:102B600040EA0401002000F0A4F8002010BD10B5D8
:102B70000446014606224FF4106000F0B8F8042223
:102B800004F10E01900100F0B2F8042204F10A01F0
:102B90004FF4A06000F0ABF80422A11D4FF4706068
:102BA00000F0A5F834480178A1744178E174817887
:102BB0002175C07860753048401E0078A07510BD42
:102BC00010B50446014606224FF4106000F0B4F838
:102BD000042204F10E01900100F0AEF8042204F189
:102BE0000A014FF4A06000F0A7F80422A11D4FF4E1
:102BF000706000F0A1F82048A17C0170E17C417078
:102C0000217D8170617DC1701B49A07D491E0870C6
:102C100010BD10B50C4606281DD2DFE800F00307F2
:102C20000B0F13172046FFF7CBFF12E02046FFF7EC
:102C30009EFF0EE02078BDE8104086E7FFF782FF98
:102C4000207006E02046FFF769FF02E02046FFF70C
:102C500051FF002010BD4FF0FF3010BD10B50446ED
:102C60004FF4385000F00AF8C0F38001E170C0F36F
:102C70004000A07010BD00005500002070B5A64CAB
:102C80000546A068804720698047E169C5F3074091
:102C90008847E169C5F307208847E169E8B28847BA
:102CA000A0698047054660698047E06880472846FC
:102CB00070BD70B5984C05460E46A06880472069E7
:102CC000804745F00405E169C5F307408847E1699D
:102CD000C5F307208847E169E8B28847E1693046D3
:102CE000884760698047E068BDE8704000472DE98B
:102CF000F041894C06461746A06888460025804763
:102D000020698047E169C6F307408847E169C6F357
:102D100007208847E169F0B2884705E0A06980474D
:102D200008F805006D1CADB2BD42F7D3606980475D
:102D3000E068BDE8F04100472DE9F041764C0646D9
:102D40001746A0688846002580472069804746F0DE
:102D50000406E169C6F307408847E169C6F3072026
:102D60008847E169F0B2884706E000BFE16918F8DA
:102D7000050088476D1CADB2BD42F7D3606980473E
:102D8000E068BDE8F04100472DE9F04142F208015A
:102D900001EB401542F20811002601EB40142846D1
:102DA000FFF76CFF07462046FFF768FF00EB0720A0
:102DB00007043F0C09D02846FFF760FF064620466F
:102DC000FFF75CFF00EB062086B2BE42E7D130463B
:102DD000BDE8F0812DE9F04142F2086101EB4015B8
:102DE00042F20871002601EB40142846FFF746FF27
:102DF00007462046FFF742FF00EB072007043F0C81
:102E000009D02846FFF73AFF06462046FFF736FF6F
:102E100000EB062086B2BE42E7D13046D8E72DE966
:102E2000F0475FEA02088946064625D042F208507C
:102E300000EB46152846FFF721FF074642F20840FF
:102E400000EB46142046FFF719FF07EB002087B27E
:102E5000380200EB4610424649461030FFF76CFF3F
:102E600007EB080086B2310A2046FFF722FFF1B2D5
:102E70002846BDE8F0471CE7BDE8F0872DE9F0479C
:102E80005FEA020889460646F6D042F6081000EBD3
:102E900046152846FFF7F2FE074642F6080000EB0B
:102EA00046142046FFF7EAFE07EB002087B23802FF
:102EB00000EB4610424649461830FFF718FF07EB73
:102EC000080086B2310A2046FFF7F3FEF1B2284629
:102ED000BDE8F047EDE6CFE72DE9F041044642F6C4
:102EE000081000EB44150E462846FFF7C7FE0746BC
:102EF00042F6080000EB44142046FFF7BFFE07EB44
:102F00000020304486B2310A2046FFF7D2FEF1B2EB
:102F10002846BDE8F041CCE65C0000202DE9F05FDA
:102F20000546002092469B46884606468146402438
:102F30001BE0284641464746224600F042F85346E9
:102F40005A46C01A914110D311461846224600F045
:102F500029F82D1A67EB01084F462246012000216F
:102F600000F020F817EB00094E41201EA4F10104E7
:102F7000DFDC484631462A464346BDE8F09F000064
:102F8000064C074D06E0E06840F0010394E80700B6
:102F900098471034AC42F6D3FDF7FAF8E83500084C
:102FA00008360008202A04DB203A00FA02F100204B
:102FB00070479140C2F1200320FA03F31943904077
:102FC0007047202A04DB203A21FA02F000217047E2
:102FD00021FA02F3D040C2F1200291400843194681
:102FE000704700000FB4054B10B503A9044A0298BE
:102FF00000F018F810BC5DF814FB0000CD050008C7
:103000007C00002002E008C8121F08C1002AFAD183
:1030100070477047002001E001C1121F002AFBD158
:10302000704700002DE9FF4F8DB00F460546002682
:1030300006E025280BD0DDE90F1290476D1C761CA9
:1030400028780028F5D111B03046BDE8F08F002473
:10305000A246A1460122EC4900E0044315F8013FD5
:10306000203B02FA03F00842F7D128782A2810D032
:103070006FF02F022878A0F13001092914D80AEB4B
:103080008A0102EB410144F0020400EB010A6D1CCD
:10309000F0E701CF5FEA000A03D544F40054CAF117
:1030A000000A44F002046D1C28782E2817D115F868
:1030B000010F44F004042A280ED06FF02F02287864
:1030C000A0F1300109290AD809EB890102EB41017D
:1030D00000EB01096D1CF2E757F8049B6D1C287882
:1030E0006C280FD006DC4C2817D068280DD06A2831
:1030F00014D104E0742810D07A280FD10DE044F4E4
:1031000000140AE044F4801401E044F440146978A7
:10311000814202D104F580146D1C6D1C2A786E2A40
:103120001FD00CDC632A31D004DC002A8BD0582A53
:1031300011D1A3E0642A68D0692A0CD165E0732A12
:103140002ED004DC6F2A73D0702A04D19BE0752A3C
:103150006FD0782A6ED01046DDE90F129047761CAA
:1031600050E1C4F30250022806D0032809D00428F5
:1031700001CF09D0066045E101CFF117C0E9006138
:1031800040E101CF06803DE106703BE117F8040BFA
:103190008DF8000000208DF80100EB46012003E0CF
:1031A00057F804BB4FF0FF3061074FF0000102D425
:1031B0000DE008F10101884649450FDA8045F8DB4A
:1031C0001BF808100029F4D108E008F10101884635
:1031D0008142FADB1BF808100029F6D1DDE90F2344
:1031E000AAEB08008146214600F036F9304400EB96
:1031F000080604E0DDE90F121BF8010B9047B8F157
:103200000108F7D221464846F7E00A21C4F30253E9
:103210004FF0000B0891022B04D001CFC117032BF4
:1032200009D00AE0FF1D27F00707F7E8020108E0D0
:1032300032E01FE020E000B2C117042B01D140B200
:10324000C117031E71F1000307DA4FF0000CD0EB39
:103250000C006CEB01012D2302E0230504D52B2388
:103260008DF82430012303E0E30701D02023F7E7A2
:10327000984658E00A2110E010210EE010204FF08F
:10328000000B08900CE010214FF0000B44F00404F8
:103290004FF00809089103E008214FF0000B089156
:1032A000C4F30253022B04D001CF0021032B06D01C
:1032B00006E0FF1D27F00707F7E8020103E080B2F0
:1032C000042B00D1C0B24FF0000823072BD5702A81
:1032D00007D0DDF820C08CF0100C5CEA0B0C05D098
:1032E0000EE040238DF82430012308E050EA01036A
:1032F00006D030238DF824308DF8252002239846FF
:10330000DDF820C08CF0080C5CEA0B0C0BD150EA05
:10331000010301D1630706D530238DF824304FF027
:103320000108A9F10109582A04D038A20B9208AA71
:103330000A920BE03AA2F9E75B46089AFFF7EEFD26
:103340000B9B9B5C0A9A521E0A92137050EA010270
:10335000F2D10A98ADEB000000F1200B600702D516
:1033600024F4803401E04FF00109D94502DDA9EBD6
:103370000B0000E0002000EB0B0141440890AAEB99
:10338000010AE00306D4DDE90F232146504600F090
:1033900063F806444FF0000908E009A911F8090094
:1033A000DDE90F12904709F10109761CC145F4DBF4
:1033B000E0030CD5DDE90F232146504600F04CF820
:1033C000064404E0DDE90F1230209047761C08998E
:1033D000481E08900029F5DC08E00A980A99007850
:1033E000491C0A91DDE90F129047761CBBF10001E0
:1033F000ABF1010BF1DC21465046DDE90F2300F073
:1034000019F806446D1C1BE60928010030313233DF
:103410003435363738396162636465660000000010
:1034200030313233343536373839414243444546FA
:10343000000000002DE9F041044600251E46174615
:10344000880404D405E039462020B0476D1C641E72
:10345000F9D52846BDE8F0812DE9F0410446002564
:103460001E469046C80301D5302700E02027880477
:1034700004D505E041463846B0476D1C641EF9D5B9
:103480002846BDE8F08100000801010101010101A9
:1034900008010101010101010D0A2A2A2A2A2A2A0A
:1034A0002A2A2A2A2A2A2A2A2A2A2A2A2A2A2A2A7C
:1034B0002A2A20436F70797269676874203230302D
:1034C000392D323031342C20456D6265644E65747F
:1034D000202A2A2A2A2A2A2A2A2A2A2A2A2A2A2A56
:1034E0002A2A2A2A2A2A2A2A2A0000000D0A2A2AF7
:1034F0002A2A2A2A2A2A2A2A2A2A2A2A2A2A2A2A2C
:103500002A2A2A2A2A2A2A2A2A20687474703A2FF8
:103510002F7777772E656D6265642D6E65742E63E7
:103520006F6D202A2A2A2A2A2A2A2A2A2A2A2A2A7D
:103530002A2A2A2A2A2A2A2A2A2A2A2A2A00000069
:103540000D0A2A2A2A2A2A2A2A2A2A2A2A2A2A2A18
:103550002A2A2A2A2A2A2A2A2A2A2A2A2A2A2A20D5
:10356000416C6C2052696768747320526573657290
:10357000766564202A2A2A2A2A2A2A2A2A2A2A2AF4
:103580002A2A2A2A2A2A2A2A2A2A2A2A2A2A2A2A9B
:103590002A0000000D0A2A2A2A2A2A2A2A2A2A2A46
:1035A0002A2A2A2A2A2A2A2A2A2A2A2A2A2A2A2A7B
:1035B0002A2A2A2A2A2A2A2A2A2A2A2A2A2A2A2A6B
:1035C0002A2A2A2A2A2A2A2A2A2A2A2A2A2A2A2A5B
:1035D0002A2A2A2A2A2A2A2A2A2A2A2A2A2A2A2A4B
:1035E0002A2A2A2A2A0000000836000800000020A3
:1035F00080000000043000088836000880000020A9
:10360000807F0000143000080008DC00ABCDC0A8AB
:10361000017BFFFFFF00C0A80101000000000100C6
:103620000000000000000000000000000102030490
:103630000102030406070809007A030A00000000DB
:1036400000000000010203040607080900C0000092
:10365000000000000000000000000000000000006A
:10366000000000000102573535303000E92600081F
:10367000EB260008ED260008EF260008F1260008DA
:08368000F5260008000000001F
:040000050800018965
:00000001FF
