:020000040800F2
:10000000D8A10120190D00089D0100089F010008DA
:10001000A1010008A3010008A501000800000000DC
:10002000000000000000000000000000A701000820
:10003000A901000800000000AB010008310D000814
:10004000330D0008330D0008330D0008330D000890
:10005000330D0008330D0008330D0008330D000880
:10006000330D0008330D0008330D0008330D000870
:10007000330D0008330D0008330D0008330D000860
:10008000330D0008330D0008330D0008330D000850
:10009000330D0008330D0008330D0008330D000840
:1000A000330D0008330D0008330D0008330D000830
:1000B000330D0008330D000815490008330D000802
:1000C000330D0008330D0008330D0008330D000810
:1000D000330D000821480008330D0008330D0008D7
:1000E000330D0008330D0008330D0008330D0008F0
:1000F000330D0008330D0008330D0008330D0008E0
:10010000330D0008330D0008330D0008330D0008CF
:10011000330D0008330D0008330D0008330D0008BF
:1001200075070008330D0008330D0008330D000873
:10013000330D0008330D0008330D0008330D00089F
:10014000330D0008330D0008330D0008330D00088F
:10015000330D0008330D0008330D0008330D00087F
:10016000330D0008330D0008330D0008330D00086F
:10017000330D0008330D0008330D0008330D00085F
:10018000330D0008330D0008DFF80CD005F0A0F99E
:100190000048004785040008D8A101207047FEE709
:1001A000FEE7FEE7FEE770477047704710B504466C
:1001B0006FF0040000F008FE2948E10801EB41025D
:1001C0000170C2EBC1114FF6FF7202EAC10141801A
:1001D00010BD2349097848434FF0E02148610022CF
:1001E0008A61086940F0010008610869C30701D00D
:1001F000C003FAD5086920F0010008618A617047E0
:100200001749498848434FF0E021486100228A613C
:10021000086940F0010008610869C30701D0C00304
:10022000FAD5086920F0010008618A61704770B54D
:100230004FF40775B0FBF5F1CCB2B0FBF5F105FB5F
:10024000110604E02846FFF7DBFF641EE4B2002C31
:10025000F8D1002E03D03046BDE87040D0E770BD25
:10026000000000202DE9F041174F054600244FF40F
:1002700080788021384601F03FF828064FF0400191
:10028000384602D501F036F801E001F035F868068D
:10029000050E8021384601F02DF87006060E414605
:1002A000384601F013F810B146F0010601E026F0DF
:1002B0000106641CE4B2082CDBD38021384601F02F
:1002C0001BF83046BDE8F0810008024000B58BB055
:1002D00000200A900E208DF828002822B9A1684637
:1002E00005F0BCF826224FF40011684600F0F9FB37
:1002F00002224FF4C0010AA800F0F3FB0BB000BDCE
:1003000000B591B01F224FF4001106A800F04AFB7F
:100310001822B649684605F0A1F89DF818008DF836
:1003200000009DF819008DF801009DF81A008DF865
:1003300002009DF81B008DF803009DF81C008DF84D
:1003400004009DF81D008DF805009DF81E008DF835
:1003500006009DF81F008DF807009DF820008DF81D
:1003600008009DF821008DF809009DF822008DF805
:100370000A009DF823008DF80B009DF824008DF8ED
:100380000C009DF825008DF80D009DF826008DF8D5
:100390000E009DF827008DF80F009DF828008DF8BD
:1003A00010009DF829008DF811009DF82A008DF8A5
:1003B00012009DF82B008DF813009DF82C008DF88D
:1003C00014009DF82D008DF815009DF82E008DF875
:1003D00038009DF82F008DF839009DF830008DF819
:1003E0003A009DF831008DF83B006946002003F08B
:1003F000B2FC6946012003F0AEFC0FA9082003F00F
:10040000AAFB9DF833009DF83410002341EA002236
:100410000121184602F00BFC9DF835009DF83610BE
:1004200041EA00220EA9002002F0BBFC11B000BD81
:1004300000B56E4B85B0103B0DF1040C0FCB8CE872
:100440000F0003F055F96A496A4803F0FAF96A495E
:100450006A4803F003FA6A496A4803F01DFA01A9E1
:10046000012003F078FB401C0BD069460F2003F0FD
:1004700072FB9DF800000028F7D0FFF741FF05B0A0
:1004800000BDFEE7A820FFF791FE00F0C7F80023AB
:1004900008224FF41651184604F051F900F004FAFE
:1004A000DFF864914FF4007A4EF6177615E000BF3E
:1004B0004FF480714C46484600F01EFF55465146A9
:1004C000204600F017FF6420FFF7B1FE29462046C2
:1004D00000F012FF6420FFF7AAFE00F0C1F9B0425D
:1004E000E6D14A4C0821204600F0F0FE50B14FF40E
:1004F000FA70FFF79CFE0821204600F0E7FE08B1E5
:10050000FFF7E4FE424C4FF4C00B4FF400180222F8
:100510005F4659463E4800F045FA25781C22414680
:100520003B4800F03FFAA67E0E2D04D0012D37D0B7
:10053000FFF7CCFEEBE751464D46484600F0DCFEA7
:100540004FF48071284600F0D5FEFFF771FF314867
:100550000121314D0170BB4602E0304604F03DFC04
:1005600028880028F9D004F0BBFA51464F46484687
:1005700000F0C2FE4FF48071384600F0BBFE02224C
:100580005946234800F00EFA27781C22414620489D
:1005900000F008FA0E2FBAD1A07EB042E0D0B6E744
:1005A0001C4803214D4601704FF48071484600F00D
:1005B000A3FE5146284600F09DFE304604F0D9FACD
:1005C000A5E700000108DC00ABCDC0A8017BFFFF60
:1005D000FF00C0A8010108080808C0A801BE011357
:1005E00088177003E80FA000258000000C58000851
:1005F000FF370008F73700081138000807380008EF
:10060000BF370008D9370008000C02400004024040
:100610007461002004000020AC6000207CB5012142
:10062000082000F0BBFF4FF44070009001208DF8CF
:10063000040000248DF8064002258DF805508DF841
:10064000074069467D4800F0DBFD0121022000F0F3
:10065000A5FF182000908DF804408DF807506946DA
:10066000774800F0CDFD7CBD3EB504460121022057
:1006700000F0B2FF684601F0B9FD4FF47A70B4FBA8
:10068000F0F1B0FBF1F0401E01905320ADF80000F6
:1006900000206C4CADF80800ADF802006946204619
:1006A00001F074FD0121204601F0CEFD20212046FD
:1006B00002F077F90121204601F0E0FD3EBD08B5CA
:1006C0004FF4E06000F03AFB38208DF80000012084
:1006D0008DF8010000218DF802108DF803006846A6
:1006E00000F031FB08BD30B58FB00546FFF7E7FFDE
:1006F0000121880500F052FF534C204601F028FBF1
:100700000021204601F0E5FB204601F026FC0028F0
:10071000FAD14E480021CDE900104D4802AA82E8E6
:1007200023004FF48060CDE9051040000790800061
:100730000890401109904002CDE90A010120CDE95D
:100740000C010E916946204601F08AFB10212046DB
:1007500001F023FC01221021204601F02FFC20464D
:1007600001F0FBFB0028FAD10121204601F0B1FB8A
:100770000FB030BD70B5374C334D2146284601F0DF
:1007800033FC002806D02146284601F050FC3249AF
:100790000120087070BD70B5012105460C028CB0B7
:1007A000204600F023FF0121084600F0F7FE01215A
:1007B000204600F04DFF0021204600F049FFFF20B9
:1007C0000A9003208DF82C0000248DF82F400AA9F0
:1007D000224800F015FD00F009FB4FF080508DF825
:1007E0000440029000948DF805404010CDE90304C8
:1007F000164E01208DF814004C3E6946304600F03C
:1008000001FB4FF40030CDE90640C010089006A867
:1008100000F023FBE9B205230122304600F067FB1C
:100820000121304600F0D6FB0121304600F0DCFB10
:100830000121304600F028FB0CB070BD000C0240D6
:100840000004024000040040106402404C200140BB
:100850004801002020800010050000200000024018
:1008600070B5E54E4FF4007500242946304600F07F
:1008700043FD9020FFF7F6FC0020FFF7F3FC00207B
:10088000FFF7F0FC0020FFF7EDFCFF20FFF7EAFC8C
:1008900044EA0024FF20FFF7E5FC044329463046E4
:1008A00000F028FD204670BD2DE9FC410121042007
:1008B00000F074FE01248DF8044002254FF43070DE
:1008C0008DF805500026CC4F00908DF806608DF80D
:1008D00007406946384600F093FC20028DF804601A
:1008E00000908DF805508DF807406946384600F0B5
:1008F00087FC6102384600F0FDFCFF20FFF7B2FCE8
:10090000FFF7AEFFBD490880BDE8FC8170B5BA4E67
:100910004FF400752946304600F0EEFC0520FFF745
:10092000A1FCFF20FFF79EFC04462946304600F05C
:10093000E1FC204670BD70B5AF4D06464FF4007423
:100940002146284600F0D8FC0120FFF78BFC3046FA
:10095000FFF788FC21462846BDE8704000F0CABC7D
:1009600070B5A54D4FF400742146284600F0C4FC34
:100970000620FFF777FC21462846BDE8704000F0CE
:10098000B9BC70B59C4D4FF400742146284600F068
:10099000B3FC0420FFF766FC21462846BDE8704002
:1009A00000F0A8BC2DE9F041DFF84C820C46064669
:1009B0004FF4007715463946404600F09DFC032071
:1009C000FFF750FCC4F30740FFF74CFCC4F30720CB
:1009D000FFF748FCE0B2FFF745FC002405E0FF20EC
:1009E000FFF740FC3055641CA4B2AC42F7D3394643
:1009F0004046BDE8F04100F07DBC10B5FFF786FF32
:100A0000C007FBD110BD2DE9F04115460C46064646
:100A1000FFF7A6FFDFF8E0814FF400773946404644
:100A200000F06AFC0220FFF71DFCC4F30740FFF74B
:100A300019FCC4F30720FFF715FCE0B2FFF712FC26
:100A4000002404E0305DFFF70DFC641CA4B2AC424E
:100A5000F8D33946404600F04DFCBDE8F041CCE704
:100A60002DE9F0410746C8B2C0F580740E46154620
:100A7000A24200D814464FF48078224631463846C8
:100A8000FFF7C1FFA54208D0281B2744264485B2A2
:100A90004446A542F1D82C46EFE7BDE8F08170B599
:100AA0000403FFF75DFFFFF7A8FF534E4FF40075F7
:100AB0002946304600F020FC2020FFF7D3FBC4F38A
:100AC0000740FFF7CFFBC4F30720FFF7CBFBE0B2F3
:100AD000FFF7C8FB2946304600F00CFCBDE870402B
:100AE0008BE72DE9F05FC1F30B06DFF814810F0BE4
:100AF000C6F58054894682461546A24200D814465F
:100B000039038B464FF480524046FFF74BFF0020DD
:100B100006E0321818F80210FF2903D1401C80B2F9
:100B2000A042F6D3A04223D23846FFF7B8FF0020F8
:100B300007E000BF1AF800208319401C08F80320C2
:100B400080B2A042F6D359464FF480524FEA0800D3
:100B5000FFF786FFA5420FD0281BA244A144002620
:100B600085B24FF480547F1CA542C9D82C46C7E7F4
:100B7000224649465046EBE7BDE8F09F70B5FFF7C7
:100B8000EFFEFFF73AFF1C4D4FF400742146284654
:100B900000F0B2FBC720FFF765FB2146284600F0B6
:100BA000A9FBBDE8704028E770B5134D4FF4007401
:100BB0002146284600F0A0FBB920FFF753FB214651
:100BC000284600F097FBBDE870400320FFF701BB0B
:100BD00070B5094D4FF400742146284600F08CFB97
:100BE000AB20FFF73FFB2146284600F083FBBDE822
:100BF00070400320FFF7EDBA000802400600002015
:100C0000684F0020F0B58BB000242821684604F01E
:100C10003EFC4049012000BF31F81020FF2A01D8D6
:100C2000641CE4B2401CC0B20728F5D35FF0070093
:100C300031F81020FF2A01D8641CE4B2401CC0B275
:100C40001728F5D35FF0170031F81020FF2A01D8DC
:100C5000641CE4B2401CC0B21B28F5D3C88EFF2828
:100C600001D8641CE4B2E41CCB8F42F21072E0B2F3
:100C7000934201D8401CC0B2B1F84020B1F84240C4
:100C800044EA0245B5F5E13F01D8401CC0B2202836
:100C90002FD101204FEA0D0511F810602F18401CCC
:100CA000C0B207F8016C1C28F6D3088F8DF81C0021
:100CB000050A8DF81B50488F050A8DF81D508DF8D8
:100CC0001E00888F8DF82000010A180A8DF8210077
:100CD000200A8DF822308DF824008DF81F108DF831
:100CE00023208DF8254026224FF400116846FFF797
:100CF000F8FE0BB0F0BD00B58BB026224FF400110A
:100D00006846FFF74FFE26226946002002F004F9EC
:100D10000BB000BDAC600020064880470648004785
:100D2000FEE7FEE7FEE7FEE7FEE7FEE7FEE7FEE79B
:100D3000FEE7FEE7EF2A000889010008284908437A
:100D400028490860704730B50F22C4780178012324
:100D5000FCB1244C246801F1E02104F4E064C4F502
:100D6000E064C4F30724C4F10405E2404478AC40D5
:100D70008578154025432A0181F80024007800F089
:100D80001F018B404009800000F1E020C0F80031D5
:100D900030BD01F01F0083404809800000F1E020D1
:100DA000C0F8803130BD104A114001430D48001F8A
:100DB000016070470B4A121D0029116801D00143E0
:100DC00000E08143116070474FF0E021042808697A
:100DD00003D020F004000861704740F00400FAE7F7
:100DE0000000FA050CED00E080FFFF1F10B50121A7
:100DF0000C02204600F02CFC2046BDE810400021EB
:100E000000F026BC30B54268C84B0C791A400B681C
:100E100042EA0422134343608268C54B4D791A406D
:100E2000D1E9034323438C6844EA45042343134335
:100E30008360C26A097D22F47002491EC9B242EA87
:100E40000151C16230BD00210160017141718160B9
:100E5000C1600161012101757047B64B10B5D3F82F
:100E60000423B5490A40D0E900142143D0E90240E7
:100E7000044321431143C3F8041310BD0021016052
:100E800041608160C16070470029816802D041F0F3
:100E9000010101E021F00101816070474268A74B28
:100EA0001A400A434260704741628262704742685A
:100EB00022F01F020A43426070479E490028D1F881
:100EC000040302D040F4000001E020F40000C1F867
:100ED0000403704797490028D1F8040302D040F476
:100EE000800001E020F48000C1F80403704770B571
:100EF000072409290AD9C568A1F10A0606EB4606A6
:100F0000B440A543B3401D43C56007E0056901EB4C
:100F10004106B440A543B3401D4305611F23072A82
:100F200009D2446B521E02EB820293409C439140D3
:100F30000C43446370BD0D2A09D2046BD21F02EB2F
:100F4000820293409C4391400C43046370BDC46A89
:100F50000D3A02EB820293409C4391400C43C462E1
:100F600070BD816841F0804181607047014600207A
:100F70008968490200D5012070470029816802D0A4
:100F800041F4806101E021F48061816070470029B3
:100F9000816802D041F0020101E021F0020181608C
:100FA00070474268491E22F4604242EA4131416082
:100FB00070470029416802D041F4006101E021F44A
:100FC000006141607047C06C80B270475948D0F8EA
:100FD000080370470029816802D041F4807101E064
:100FE00021F48071816070470029816802D041F44A
:100FF000007101E021F40071816070474D490028C3
:10100000D1F8040302D040F4005001E020F4005075
:10101000C1F80403704770B5072409290AD9C568C7
:10102000A1F10A0606EB4606B440A543B3401D43B2
:10103000C56007E0056901EB4106B440A543B34034
:101040001D430561836BC3F30154121B921C02EB19
:1010500082041F22A2409343A1400B43836370BDCF
:10106000826B491E22F4401242EA015181637047AB
:1010700008B508440090026008BD826822F470221E
:101080000A4382607047826822F440120A438260F9
:101090007047816841F480018160704701460020FB
:1010A0008968490200D5012070470029416802D0B3
:1010B00041F4806101E021F48061416070470029C2
:1010C000416802D041F4805101E021F48051416037
:1010D000704708B5084428300090006880B208BD09
:1010E00001238B4041680AB1194300E099434160F4
:1010F00070470246002012680A4200D00120704763
:10110000C9430160704730B50246002053680C0A9D
:1011100001258D4011682B40214202D0002B00D0C8
:10112000012030BD6FEA112101607047FFFEFFFC16
:10113000FDF7FFC000200140E030FCFFFFFD3FFF56
:101140007C4910B5884206D10121084600F058FAC2
:10115000002101204FE07849884206D10121022078
:1011600000F04EFA0021022045E07449884206D181
:101170000121042000F044FA002104203BE07049E2
:10118000884206D10121082000F03AFA0021082007
:1011900031E06C49884206D10121102000F030FA7C
:1011A0000021102027E06849884206D10121202033
:1011B00000F026FA002120201DE06449884206D173
:1011C0000121402000F01CFA0021402013E060497A
:1011D000884206D10121802000F012FA00218020EF
:1011E00009E05C4988420AD184150121204600F0BB
:1011F00007FA00212046BDE8104000F001BA10BDFA
:10120000F0B50023012403270D6804FA03F215400A
:10121000954242D1D0F800C05E0007FA06F52CEAEC
:10122000050CC0F800C091F804C0D0F800E00CFA3A
:1012300006FC4CEA0E0CC0F800C091F804C0BCF1EA
:10124000010F02D0BCF1020F1FD1D0F808C02CEA68
:10125000050CC0F808C091F805C0D0F808E00CFAF9
:1012600006FC4CEA0E0CC0F808C0D0F804C02CEA0A
:10127000020CC0F804C0426891F806C00CFA03FCE6
:101280001FFA8CFC42EA0C024260C268AA43C260A8
:10129000CA79C568B2402A43C2605B1C102BB3D325
:1012A000F0BD4FF6FF710160002101714171817144
:1012B000C171704708B541F480320092C261C161CA
:1012C0000099C161C169C069009008BD0246002053
:1012D00012690A4200D001207047006980B270474D
:1012E0000246002052690A4200D00120704740693E
:1012F00080B2704701837047418370470AB1018310
:101300007047418370474161704742694A4042617A
:1013100070474B07DB0E9A40C90810B500EB8100FF
:10132000016A0F249C40A1430162016A11430162DA
:1013300010BD00000000024000040240000802400E
:10134000000C02400010024000140240001802404D
:10135000001C024000200240EA48016841F00101FF
:101360000160E84A0021083211600268E64B1A4029
:101370000260031DE54A1A60026822F480220260BE
:10138000E0480C3001607047DE490022891C0A7079
:101390000870704702460020510901290CD002292B
:1013A0000CD0D8497431096802F01F020123934020
:1013B0000B4200D001207047D249F4E7D149703187
:1013C000F1E718B500204FF4A06400903120FFF73A
:1013D000E1FF0099491C0091A14201D00028F5D0FD
:1013E0003120FFF7D7FF002800D0012018BDC549E4
:1013F0000A6822F0F80242EAC00008607047C44957
:1014000008607047BF49002270310A700A700128D5
:1014100002D0042801D1052008707047BD4908603A
:10142000704741EA82115A0810B5BB4B029C03EB8E
:1014300002421143014341EA0460B249091D0860B8
:1014400010BDB34908667047800140EA0170AD499C
:10145000843108607047AE4988667047AC49C864FB
:101460007047A84A08321368084323F0EC63184316
:1014700010607047A34A08321368084323F078438A
:101480001843106070479F4A0832116821F0030129
:101490000143116070479B480830006800F00C0061
:1014A0007047984A0832116821F0F0010143116039
:1014B0007047944A0832116821F4E05101431160E9
:1014C0007047904908310A6822F4604242EAC0003D
:1014D0000860704770B58B4A083211688F4C11F064
:1014E0000C0104D06610042903D0082903D004603D
:1014F0001BE0066019E08349091D0B68C3F38055A2
:101500000B6803F03F0315B1B6FBF3F301E0B4FB46
:10151000F3F30C680968C4F388146343C1F3014111
:10152000491C4900B3FBF1F1016011680F2303EA84
:1015300011117B4B5C5C0168E14041601468072538
:1015400005EA94241C5D21FA04F48460126805EA1B
:1015500052329A5CD140C16070BDC0F301210329B1
:1015600008D1684A0832116821F4F8136D49014026
:1015700019431160634970310A68C0F30B000243DC
:101580000A607047634944390860704761494039CF
:10159000086070475E49C1F85C017047594A3032B3
:1015A0000029116801D0014300E0814311607047B8
:1015B000544A34320029116801D0014300E08143CC
:1015C000116070474F4A38320029116801D0014339
:1015D00000E08143116070474A4A40320029116897
:1015E00001D0014300E0814311607047454A443215
:1015F0000029116801D0014300E081431160704768
:10160000404A10320029116801D0014300E08143B3
:10161000116070473B4A14320029116801D0014320
:1016200000E0814311607047364A18320029116882
:1016300001D0014300E0814311607047314A2032FC
:101640000029116801D0014300E081431160704717
:101650002C4A24320029116801D0014300E0814363
:1016600011607047274A50320029116801D00143A8
:1016700000E0814311607047224A5432002911680A
:1016800001D0014300E08143116070471D4A583288
:101690000029116801D0014300E0814311607047C7
:1016A000184A60320029116801D0014300E08143EB
:1016B00011607047134A64320029116801D0014358
:1016C00000E08143116070470E4A0D320029117805
:1016D00001D0014300E08143117070470948743024
:1016E000016841F08071016070470146054A0020A1
:1016F0000C3212680A4200D00120704701490E31B5
:101700000870704700380240FFFFF6FE10300024DA
:1017100000004742800E47420000FFFF0024F40013
:1017200008000020FFFCFF0FC74910B5884206D112
:1017300001211020FFF78CFF0021102028E0C34971
:10174000884202D101214C0410E0C149884202D1F3
:1017500001218C040AE0BF49884202D10121CC0456
:1017600004E0BD4988420AD101210C052046FFF75B
:1017700065FF2046BDE810400021FFF75FBFB74975
:10178000884209D101212020FFF762FF002120209B
:10179000BDE81040FFF75CBF10BD7FB50446008A6E
:1017A0000D4620F44051E88808432082A08941F288
:1017B0000C618843A9882A8911436A89024311432D
:1017C000A181A08A20F44071A8890843A0826846BC
:1017D000FFF780FE9C48844202D0A048844201D199
:1017E000039800E00298A189090400EBC00101EB15
:1017F0000010296801D5490000E08900B0FBF1F232
:101800006420B2FBF0F109010B096FF018056B437E
:1018100002EB8302A3891D044FF0320306D503EBCC
:10182000C202B2FBF0F000F0070005E003EB021289
:10183000B2FBF0F000F00F00084320817FBD4FF4B1
:101840001651016000218180C18001810C224281FA
:101850008181704710B5028A4C8822F470630A882F
:1018600022438C88C9880C4322431A43028210BD4C
:101870000021018041808180C180704700298189D9
:1018800002D041F4005101E021F400518181704700
:10189000028B02F47F420283028B0A430283704769
:1018A0000029818902D041F4004101E0C1F30E0119
:1018B000818170470029818A02D041F4006101E0F2
:1018C00021F4006181827047C1F308018180704773
:1018D0008088C0F308007047028A22F00F0202825B
:1018E000028A0A43028270470029818902D041F0AE
:1018F000020101E021F0020181817047828922F416
:101900000062828182890A4382817047028A22F0C2
:1019100020020282028A0A43028270470029018A59
:1019200002D041F4804101E021F4804101827047FE
:10193000818941F00101818170470029818A02D0AB
:1019400041F0080101E021F0080181827047028B1B
:10195000D2B20283028B42EA01210183704700293F
:10196000818A02D041F0200101E021F02001818232
:1019700070470029818A02D041F0100101E021F076
:10198000100181827047828A22F004028282828A58
:101990000A43828270470029818A02D041F0020105
:1019A00001E021F0020181827047002A828A01D081
:1019B0000A4300E08A438282704710B5C1F34213A4
:1019C00001F01F040121A140012B07D0022B07D0F9
:1019D0001430002A026805D00A4304E00C30F8E70E
:1019E0001030F6E78A43026010BD024600201288DC
:1019F0000A4200D001207047C9430180704730B5CA
:101A000001F01F0201240025C1F3421304FA02F27F
:101A1000012B0FD0022B0FD0838A4FEA11210088AF
:101A2000134204FA01F400EA040001D000B10125D8
:101A3000284630BD8389F0E7038AEEE70A0A0121D0
:101A40009140C943018070470010014000440040AC
:101A500000480040004C004000500040001401408D
:101A6000B64910B588420AD1841401212046FFF7F7
:101A7000EFFD2046BDE810400021FFF7E9BDB04969
:101A8000884202D10121041404E0AE4988420AD1FF
:101A90000121C4132046FFF7D1FD2046BDE81040C8
:101AA0000021FFF7CBBD10BD30B502884C8802F491
:101AB00041530A88CD8822438C882C4322430C89C9
:101AC00022434C8922438C892243CC8922431A43E6
:101AD0000280828B22F400628283098A018230BDF7
:101AE000F0B502220023858B01244FF240063540D9
:101AF00085830284858B8E68022E3ED08A8802B14F
:101B00000224914A13681B0203D5136823F40003CF
:101B100013608D4A7C3213681268C3F388138A4EAF
:101B2000C2F30272361F3668884F06F03F06B7FBD5
:101B3000F6F65E43B6FBF2F2CB88B3F5007F2CD00D
:101B40006301B2FBF3F200BF02EB82028B6852002A
:101B5000B2FBF3F2521D92B20A23B2FBF3F202F08F
:101B60000103D21A4FF6FF74C2F34F0204EA0323B3
:101B7000941EFE2C01D302220023CC881A43144366
:101B800004840A884B881A438B8889890B431A433B
:101B90002A4342F400618183F0BD120AD4E7002198
:101BA000018041808180C180018141818181C18129
:101BB0000721018270470021018041808180C1801E
:101BC00002228260818170470029018802D041F0A1
:101BD000400101E021F04001018070470029818B24
:101BE00002D041F4806101E021F48061818370477B
:101BF000028822F40062028002880A430280704751
:101C0000B1F5804F018803D021F4804101807047F5
:101C100041F48041FAE7A1F57E420188FF3A02D003
:101C200041F4807101E021F4807101807047002946
:101C3000818802D041F0040101E021F0040181809B
:101C400070470029818802D041F0100101E021F0A5
:101C500010018180704730B5838B00224FF2400421
:101C60002340838302230384848B0B884FF4807585
:101C7000B3F5007F00D003B92A464B888D88898947
:101C80002B4311430B43234343F40061818330BD55
:101C900080897047818170470029018802D041F412
:101CA000005101E021F4005101807047018841F4A6
:101CB000805101807047012901D0008B7047808AD4
:101CC0007047008A7047002A828801D00A4300E0EA
:101CD0008A4382807047090901238B40002A828849
:101CE00099B201D00A4300E08A43828070470246DD
:101CF000002012890A4200D001207047C9430181A7
:101D0000704710B501F00F040122034602FA04F4F3
:101D1000002009098A4091B29A88A4B20A40198920
:101D2000214202D0002A00D0012010BD01F00F0294
:101D300001219140C94301817047000000300140FA
:101D400000380040003C00400838024000127A0091
:101D50002DE9F043016821F00101016000210160DB
:101D600041608160C160016121214161B849B84A87
:101D70003D251039904202D18D60BDE8F083B44A10
:101D80004FF474661832904201D18E60F5E7B04A84
:101D90004FF474173032904201D18F60EDE7AC4AB6
:101DA0004FF0746C4832904202D1C1F808C0E4E7A9
:101DB000A74BA84A6033984201D1CA60DDE7A44C22
:101DC000A54B7834A04201D1CB60D6E7DFF8808202
:101DD000A24C08F19008404501D1CC60CDE7DFF876
:101DE00070824FF03D5908F1A808404502D1C1F872
:101DF0000C90C2E79A49DFF868820839404501D162
:101E00000D60BAE7964D1835A84201D10E60B4E7CF
:101E1000934D3035A84201D10F60AEE7904D483563
:101E2000A84202D1C1F800C0A7E78D4D8C496035AA
:101E3000091FA84201D10A609FE7894A783290427F
:101E400001D10B6099E7864A9032904201D10C6033
:101E500093E7834AA83290428FD1C1F800908CE773
:101E600030B503687F4ACC6813400A682243D1E941
:101E700005452C432243CC6922430C6A22434C6A19
:101E800022438C6A22434C6B22438C6B22431A43BD
:101E90000260426922F00703D1E90B2422431A436E
:101EA00042610A6942604A6882608968C16030BDE7
:101EB0000021016041608160C16001614161816117
:101EC000C161016241628162C162016341638163F8
:101ED00070470029016802D041F0010101E021F0C2
:101EE0000101016070470029016802D041F40041FE
:101EF00001E021F40041016070470029016802D02F
:101F000041F0200101E021F02001016070474160B3
:101F10007047406880B27047002A026802D042F4DD
:101F2000002201E022F400220260016170470029D2
:101F3000016802D041F4802101E021F48021016098
:101F400070470AB101617047C160704701460020C7
:101F50000968090300D5012070470146002009687F
:101F6000C90700D001207047406900F03800704771
:101F700002463B4B00209A4202D2354A103A01E019
:101F8000374A103A8B0001D5526800E01268364B90
:101F90001A400A4200D001207047314A904202D2D2
:101FA0002B48103801E02E4810382F4A8B0001EAE8
:101FB000020101D5C1607047816070470B0607D5EB
:101FC000436912B143F0800301E023F080034361D1
:101FD000802908D0002A026801F01E0101D00A43BE
:101FE00000E08A430260704730B51D4A00249042E9
:101FF00002D2174B103B01E0194B103B1B4A114218
:1020000005D01E2202EAD12502682A4002E040697A
:1020100000F08002880001D5586800E01868124B73
:102020001840084201D002B10124204630BD0C4ABC
:10203000904202D20648103801E0094810380A4A96
:102040008B0001EA020101D5C160704781607047D1
:10205000106002403D000020400F002000003D20A5
:10206000106402403F801CF07D0F7D0F3C0F3C0F41
:10207000FE4910B5884206D101210846FFF7E8FA6B
:10208000002101205BE0B0F1804F09D0F84988427F
:102090000DD101210220FFF7D1FA0021022070E0CA
:1020A00001210846FFF7CAFA0021012069E0F14941
:1020B000884206D101210420FFF7C0FA0021042044
:1020C0005FE0ED49884206D101210820FFF7B6FA0A
:1020D0000021082055E0E949884206D1012110205D
:1020E000FFF7ACFA002110204BE0E549884206D109
:1020F00001212020FFF7A2FA0021202041E0E14940
:10210000884206D101210220FFF7A2FA0021022015
:1021100015E0DD49884202D101210C040AE0DB49C7
:10212000884202D101214C0404E0D94988420AD1F5
:1021300001218C042046FFF78BFA00212046BDE8E0
:102140001040FFF785BAD349884206D101214020CB
:10215000FFF774FA0021402013E0CF49884206D1EE
:1021600001218020FFF76AFA0021802009E0CB4995
:1021700088420AD1841501212046FFF75FFA002129
:102180002046BDE81040FFF759BA10BD30B50288AF
:10219000B64BBC4C98420DD0A0420BD0B0F1804F52
:1021A00008D0B34DA84205D0B24DA84202D0B24DDE
:1021B000A84203D122F070054A882A43AF4DA842B5
:1021C00006D0AF4DA84203D022F440750A892A43B5
:1021D00002804A68C2620A880285984201D0A04201
:1021E00001D1897A01860121818230BD4FF0FF3112
:1021F0004160002101800181418081727047018529
:1022000082827047028822F070020A43028070477F
:1022100041627047C1627047406A7047008D7047E5
:102220000029018802D041F0020101E021F0020101
:10223000018070470029018802D041F0040101E0CB
:1022400021F00401018070470029018802D041F08B
:10225000800101E021F0800101807047028822F0B6
:102260000802028002880A4302807047028822F432
:102270004072028002880A43028070470029018868
:1022800002D041F0010101E021F00101018070471D
:1022900030B5028C22F001020284028C8388048B08
:1022A00022F0020224F073050C882C438D8915431B
:1022B0004A882A436D4DA84202D0724DA8420DD1E2
:1022C00022F00805CA8923F440732A4322F004054A
:1022D0008A882A430D8A1D434B8A2B4383800483BB
:1022E00089684163028430BD70B5028C22F010020F
:1022F0000284028C8488038B0D8823F4E6464FF613
:10230000FF7303EA052535438E8922F0200203EA94
:10231000061616434A8803EA02123243534EB0426D
:1023200002D0584EB04215D122F08006CA8924F45A
:10233000406403EA0212324322F040068A8803EA2C
:10234000021232430E8A03EA860626434C8A03EAC7
:10235000840434438480058389688163028470BD6A
:1023600070B5028C22F480720284028C8488838B84
:102370000D8823F073031D4322F400738E894FF6FA
:10238000FF7202EA06261E434B8802EA0323334308
:10239000364EB04202D03B4EB04215D123F4006617
:1023A000CB8924F4405402EA0323334323F48066A8
:1023B0008B8802EA032333430E8A02EA0616264379
:1023C0004C8A02EA04143443848085838968C1639B
:1023D000038470BD70B5028C22F480520284048C98
:1023E0008288838B0D8823F4E6464FF6FF7303EA59
:1023F0000525354324F400568C8903EA043434431C
:102400004E8803EA06362643184CA04202D01D4CE3
:10241000A04205D122F480440A8A03EA82122243B0
:102420008280858389680164068470BD00210180F3
:102430004180818081608181C181018241827047B8
:1024400030B50124058C00F118038C40A5430584A8
:1024500031B308292CD0091FC1F34E00184401687C
:1024600048F6FF731940016001681AE0000001405E
:102470000004004000080040000C00400010004034
:1024800000140040000401400040014000440140AD
:102490000048014000180040001C0040002000409F
:1024A00006E04FF6FF7303EA02221143016030BDDC
:1024B00003EB510001684FF68F731940016001680A
:1024C000F3E74163704781637047C16370470164FC
:1024D0007047028B22F070020A4302837047028B1E
:1024E0004FF6FF7322F4E04203EA01211143018316
:1024F0007047828B22F070020A4382837047828B7E
:102500004FF6FF7322F4E04203EA01211143818375
:102510007047028B22F008020A4302837047028B45
:102520004FF6FF7322F4006203EA01211143018395
:102530007047828B22F008020A4382837047828BA5
:102540004FF6FF7322F4006203EA012111438183F5
:102550007047028B22F004020A4302837047028B09
:102560004FF6FF7322F4806203EA012111430183D5
:102570007047828B22F004020A4382837047828B69
:102580004FF6FF7322F4806203EA01211143818335
:102590007047028B22F080020A4302837047028B4D
:1025A0004FF6FF73C2F30E0203EA012111430183C8
:1025B0007047828B22F080020A4382837047828BAD
:1025C0004FF6FF73C2F30E0203EA01211143818328
:1025D0007047028C22F002020A4302847047028C88
:1025E00022F008020A4302847047028C4FF6FF7300
:1025F00022F0200203EA0111114301847047028C8A
:102600004FF6FF7322F0800203EA011111430184A7
:102610007047028C4FF6FF7322F4007203EA012127
:10262000114301847047028C4FF6FF7322F400625D
:1026300003EA0121114301847047028C4FF6FF73B6
:1026400022F4005203EA013111430184704710B5AE
:102650000123048C8B409C430484038C8A401343E5
:10266000038410BD10B50423048C8B409C43048468
:10267000038C8A401343038410BD828B22F4406292
:102680008283828B4FF6FF7303EA01210A43828320
:102690007047828B22F00C028283828B0A438283F2
:1026A0007047028B22F440620283028B4FF6FF7365
:1026B00003EA01210A4302837047F0B5048C24F039
:1026C00010040484078B068C4FF6FF7404EA01158E
:1026D00027F4734704EA0331394304EA02220A4328
:1026E00026F0A001294341F0100102830184F0BDCE
:1026F000028B22F00C020283028B0A430283704792
:102700002DE9F0410D460E884988AA882B89044698
:102710000EB3042E26D0082E268C4FF6FF7028D03C
:1027200026F480562684A78B268C00EA022200EA33
:10273000013127F473473A4300EA0330104326F48B
:1027400020420A4342F48051A0832184E988204634
:10275000BDE8F04191E700F062F9E9882046BDE864
:10276000F041C5E7FFF7A9FFE9882046BDE8F04141
:1027700097E726F480762684A78B268C00EA012131
:1027800000EA0310104327F0F307384326F42062D1
:102790000A4342F48071A0832184E9882046BDE881
:1027A000F04176E700210180418001228280C180D2
:1027B000018170472DE9F0410C4600264988074603
:1027C000012501B90226A288012A00D1022520880C
:1027D00023890028384610D0FFF76FFFE18838467C
:1027E000FFF75FFF23892A463146384600F017F984
:1027F000E1883846BDE8F0417AE700F010F9E18859
:102800003846FFF775FF23892A4631463846FFF7D9
:1028100054FFE1883846BDE8F04142E7406B70471D
:10282000806B7047C06B7047006C704710B50A88AA
:102830004B88CC881A438B8823431A430B891A434D
:102840004B8989891A430A43A0F8442010BD00210E
:10285000018041808180C1800181418181817047F7
:10286000002930F8441F02D041F4004101E0C1F3D7
:102870000E01018070470029818802D041F00401D7
:1028800001E021F00401818070470029818802D095
:1028900041F0010101E021F0010181807047002A2F
:1028A000828901D00A4300E08A4382817047818295
:1028B000704702460020128A0A4200D00120704769
:1028C000C9430182704702460020138A92890B4255
:1028D00002EA010202D0002A00D001207047C94359
:1028E000018270471143A0F848107047002A82897E
:1028F00001D00A4300E08A43828170470029818821
:1029000002D041F0080101E021F008018180704708
:10291000018921F0070101817047028922F07002CC
:102920000A430281704700B50346FFF7F6FF188996
:1029300040F00700188100BD70B516460D466029AD
:1029400004464FF0010231460AD000F068F82946EB
:102950002046FFF7E2FF208940F00700208170BD8C
:10296000FFF7ABFEF3E730B504894FF6FF7505EAD4
:1029700003231343E4B20B432343038130BD10B55B
:102980000446FFF7F0FF208940F07700208110BD5A
:1029900010B50446FFF7E7FF208940F4804020810E
:1029A00010BD828822F07002828082880A43828071
:1029B0007047028922F00702028102890A430281DC
:1029C0007047028922F08002028102890A43028153
:1029D000704770B50589048B068C25F007050D43FB
:1029E0004FF6FC410C4040F201110C434FF6FF71D1
:1029F00001EA031126F022061143314305810483C5
:102A0000018470BD0029818802D041F0800101E07D
:102A100021F0800181807047A0F85010704770B598
:102A2000048C24F001040484058B048C4FF6FF769B
:102A300006EA0313134325F0F3052B4324F00A029F
:102A40000A4342F001010383018470BD0CB50020EC
:102A50005449019000900A6842F480320A604FF4B1
:102A6000A0630A6802F400320092019A521C01929B
:102A7000009A12B9019A9A42F3D10A68920334D5A6
:102A80000120009047484030026842F080520260C6
:102A90004548026842F480420260424808300268B9
:102AA0000260026842F400420260026842F4A052EE
:102AB0000260031F3D4A1A600A6842F080720A6091
:102AC0000A689201FCD53A4A40F20561116001683A
:102AD00021F003010160016841F002010160016819
:102AE000C1F381010229FAD10CBD00900CBD31481F
:102AF00010B5016841F4700101602A48016841F095
:102B000001010160274A00210832116002682A4B46
:102B10001A400260031D294A1A60026822F48022CA
:102B2000026020480C300160FFF790FF21494FF010
:102B300000608039086010BD70B51A4C08342068F8
:102B40001F4A10F00C011F4804D05510042903D06F
:102B5000082903D002601BE0056019E01149091D36
:102B60000B68C3F380560B6803F03F0316B1B5FB47
:102B7000F3F201E0B2FBF3F20B680968C3F38813C8
:102B80005A43C1F30141491C4900B2FBF1F1016014
:102B900021680C4AC1F30311121D515C0268CA403E
:102BA000026070BD003802400070004008544007C9
:102BB000003C024088ED00E0FFFFF6FE10300024EC
:102BC0000024F4001800002070B50446082802D93B
:102BD0004FF0FF3070BD4FF4847000EB4410054699
:102BE000102101F008F9284601F0EAF80028FAD18E
:102BF0004FF4027000EB44101F2101F0FCF8FA487A
:102C00000121A14082888A43F8498280002021F86E
:102C10001400F549891D08554FF4427000EB441427
:102C2000204601F0CDF80028FAD1012070BD2DE931
:102C3000F0411D4617460E460446082803D94FF0BA
:102C4000FF30BDE8F081012E06D0022E04D0042E04
:102C500002D06FF00400F4E715F0060F6FF00500E6
:102C6000EFD185B1012E02D0022E0CD103E015F078
:102C7000210FE6D007E0A90601D52906E1D5E9062E
:102C800001D52906DDD52046FFF79EFF600105F03E
:102C9000F0014FF001083143083001F0ACF8D24E9A
:102CA00057B93788781C80B2A0F57F413080F03961
:102CB00002D14FF4404030804FF48160390A00EB7C
:102CC000441001F098F84FF4A160F9B200EB441001
:102CD00001F091F84FF4847000EB44100746012195
:102CE00001F089F8384601F06BF80028FAD105F0B8
:102CF00001007188A04008437080B18808FA04F090
:102D00008143B180B949002021F81400B649891DDA
:102D100008554FF4427000EB4415284601F050F876
:102D20000028FAD060B28CE770B50546082802D9B1
:102D30004FF0FF3070BD6801083001F041F800F03D
:102D40000F00012802D06FF0040070BD4FF44270F4
:102D500000EB4510064601F033F8132802D06FF05F
:102D6000020070BD4FF4847000EB45100446022150
:102D700001F041F8204601F023F80028FAD103E0E1
:102D8000204601F01DF830B1304601F019F8142842
:102D9000F6D1012070BD2846FFF716FF6FF0030043
:102DA00070BD2DE9F04116460F460446082802D9A9
:102DB0004FF0FF3045E760014FF00108083000F0A8
:102DC000FFFF00F00F00012802D06FF0040038E789
:102DD0004FF4427000EB4410054600F0F1FF132859
:102DE00002D06FF002002CE738787978BA7801EBDE
:102DF000002102EB012100EB0120411C2CD058B333
:102E00006EB340F6084000EB44100422394601F04E
:102E100035F841F20800310A00EB441000F0EBFFF6
:102E200041F20810F1B200EB441000F0E4FF4FF45F
:102E3000847000EB44100646042100F0DCFF3046AD
:102E400000F0BEFF0028FAD1674908FA04F049886B
:102E5000084213D00020F4E66FF00B00F1E66FF0AB
:102E60000A00EEE6204600F0ABFF00070AD5204638
:102E7000082100F0C0FF6FF00C00E2E64FF4027092
:102E800000EB4414284600F09BFF1728EAD10120EC
:102E9000D7E670B50446082802D94FF0FF3070BD60
:102EA00060010125083000F08BFF00F00F000128C1
:102EB00001D0A81F70BD4FF4847000EB441006468B
:102EC000082100F098FF304600F07AFF0028FAD180
:102ED0004548A5408188A9438180408805420CD09F
:102EE000002070BD304600F06BFF00070DD5204676
:102EF000FFF76AFE6FF00C0070BD4FF4027000EB3C
:102F000044164FF4427000EB4415284600F058FF79
:102F10000028E7D1012070BD2DE9F05F15468B46F2
:102F20000646082803D94FF0FF30BDE8F09F700136
:102F30000124083000F044FF00F00F00012801D008
:102F4000A01FF2E775B14FF4427000EB4610074640
:102F500000F036FF6FF0060A172806D01C2804D0B0
:102F60005046E2E76FF00D00DFE7DFF87C80B44009
:102F7000B8F80400044213D04FF4027000EB46107E
:102F8000814600F01DFF00F01F00C10624D5484611
:102F9000102100F030FFB8F80410A143A8F8041085
:102FA00041F6087000EB461000F00AFF4FF6FF7183
:102FB00001EA8020854200D90546304600F086FFB0
:102FC0008146384600F0FCFE172811D01C280FD08F
:102FD0003046FFF7F9FDC3E700070FD53046FFF78E
:102FE000F3FD6FF00C00A0E72C000020685F0020CC
:102FF000B8F80200044203D04D4501D9002094E7FF
:103000004D45DAD82A465946304600F0AAFF4FF41B
:10301000847000EB46100646202100F0ECFE30469E
:1030200000F0CEFE0028FAD1B8F8041028460C4370
:10303000A8F8044079E72DE9F74F1446054608281B
:1030400003D94FF0FF30BDE8FE8F6801012608303C
:1030500000F0B6FE00F00F00012801D0B01FF2E72B
:1030600024B341F6086000EB451000F0A9FE4FF6CE
:10307000FF7101EA8020A04200D204464FF4427062
:1030800000EB451841F60870DFF818A600EB451B69
:1030900006FA05F9284600F03FFF0646404600F0D4
:1030A0008FFE172816D01C2803D00DE06FF00D00FE
:1030B000C9E7CEB9284600F009FF0746584600F098
:1030C0007FFEB7EB802F05D12846FFF77DFD6FF01F
:1030D0000600B8E7BAF8021019EA010F02D01EB9CB
:1030E0000020B0E7002ED5D0A64200D234462246BA
:1030F0002846019900F064FF4FF4847000EB4510FE
:103100000546402100F077FE284600F059FE0028D1
:10311000FAD1204697E72DE9F0479946089E1546D3
:103120008A460446082803D94FF0FF30BDE8F087EF
:1031300060014FF00108083000F042FE00F00F007F
:10314000022804D0042802D06FF00400EEE78DB10D
:10315000D9F8000088B19EB14FF4427000EB4410E2
:10316000074600F02DFE42280DD022280BD06FF02C
:103170000600DBE76FF00D00D8E76FF00B00D5E736
:103180006FF00A00D2E740F6084000EB441004223A
:10319000494600F073FE41F20800310A00EB44108A
:1031A00000F029FE41F20810F1B200EB441000F0EB
:1031B00022FE41F6087000EB441000F001FE4FF6CD
:1031C000FF7101EA8020854200D9054608FA04F61D
:1031D000DFF8D084204600F079FE8146384600F0C2
:1031E000EFFD38B1B8F80200064206D04D4504D9CB
:1031F00000209BE76FF0030098E74D45EAD82A4688
:103200005146204600F0ADFE4FF4847000EB4410B0
:103210000646202100F0EFFD4FF4027000EB44144D
:10322000304600F0CDFD0028FAD1204600F0C8FD60
:1032300000F01F00C10605D52046102100F0DBFD7F
:10324000284673E70007F0D52046082100F0D3FD9B
:103250006FF00C006AE72DE9FF4F002583B0984618
:1032600017460446082803D9681E07B0BDE8F08F4A
:1032700060014FF0010A083000F0A2FD834600F023
:103280000F00022804D0042802D06FF00400ECE7FD
:103290002FB1DFF8149439F8140018B11EE06FF064
:1032A0000D00E2E74FF4427000EB44160AFA04FA0C
:1032B000204600F031FE0546304600F081FD30B179
:1032C000F84949881AEA010F06D01DB106E06FF0EF
:1032D0000300CAE70020C8E7002DE9D0DFF8C4A347
:1032E00000210AF1060A4FF484700AF804100BF06A
:1032F00007014FF0800B00EB4416022920D004296F
:103300005AD02946204600F089FE29F8145030464C
:10331000402100F070FD304600F052FD0028FAD147
:1033200039F81410491B0904090C29F8141005D0A8
:103330001AF8041041F001010AF80410284694E735
:1033400039F814004D4680BB08226946204600F03B
:1033500037FE3046402100F04EFD304600F030FD93
:103360000028FAD19DF8001088F800109DF801108F
:1033700088F801109DF8021088F802109DF80310DB
:1033800088F8031010999DF8040008809DF8051036
:1033900001EB0020109908809DF806009DF80710A9
:1033A00001EB002025F814002BE02CE02A462046F3
:1033B000049900F005FEAAE739F814004D4610BB49
:1033C00002226946204600F0FBFD3046402100F015
:1033D00012FD304600F0F4FC0028FAD19DF8000000
:1033E0009DF8011001EB002080B240F2EA5125F86F
:1033F0001400884205D92046FFF7E6FB6FF47A7087
:1034000033E70AF804B035F81450BD42CED93D4632
:10341000CCE72DE9F0411446082802D94FF0FF30DF
:103420000FE44FF40272DFF87CC202EB401742F661
:1034300008426FF0090502EB40132E0CBCF8022085
:10344000082943D2DFE801F00413171A242B323C79
:10345000237801218140012B01D023B136E01143B3
:10346000ACF802102AE08A43ACF8022026E0C24001
:1034700002F0010018E041F6087101E041F6086130
:1034800001EB401000F09CFC06EA8020208015E053
:1034900020781F281AD800F01F0138460CE0384663
:1034A00000F08EFC00F01F00207007E020781F283D
:1034B0000CD800F01F01184600F09DFC012032E4FA
:1034C000184600F07DFC00F01F00207028462AE41A
:1034D0002DE9F04115460446082802D94FF0FF3087
:1034E00021E4600142F6087208306FF0040702EB35
:1034F000441608296AD2DFE801F0690408101C2587
:10350000315E297841F2086002E0297841F20850E2
:1035100000EB441000F06FFC4BE02888010A41F2F8
:10352000082000EB441000F066FC297841F20830D6
:10353000EEE740F6084000EB44100422294600F074
:103540009DFC36E02888010A41F2080000EB441097
:1035500000F051FC297841F20810D9E700F030FC66
:1035600000F00F0001282CD1304600F029FC10B1EA
:103570006FF001001EE44FF4847000EB4410054628
:10358000222100F038FC4FF4027000EB44140BE0F1
:10359000204600F015FC000706D52046082100F063
:1035A0002AFC6FF00C0005E4284600F009FC002816
:1035B000EED101200BE400F003FC00F00F00012825
:1035C00001D0384603E429783046A3E76FF00900BC
:1035D00009E470B515460446082802D94FF0FF30BB
:1035E00070BD600108306FF004060D2978D2DFE865
:1035F00001F0070C1114242D773D4A4E525D6B00EB
:1036000000F0DEFB00F0F00002E041F2086044E070
:10361000287053E041F208503FE041F2083000EBDF
:10362000441000F0CDFB064641F2082000EB4410A8
:1036300000F0C6FB06EB0020287040F6084000EBC7
:1036400044100422294600F0F4FB37E041F2081050
:1036500000EB441000F0B4FB064641F2080000EB1A
:10366000441000F0ADFB06EB002026E000F0A8FBC4
:1036700000F00F0001282DD142F6087000EB441035
:1036800000F09EFB19E0204600F020FC2880204638
:1036900000F042FC28804FF4427000EB441000F030
:1036A0008FFBB5E72C000020685F002000F088FB4E
:1036B000012805D00C4830F814002880012070BD86
:1036C000204600F029FCF8E700F07AFB00F00F003C
:1036D000012802D0304670BD02E00448005D97E743
:1036E0006FF00100F7E70000685F00203200002063
:1036F00070B588B001210220FDF750FF0121102094
:10370000FDF74CFF01218803FDF766FF434D0522BD
:103710000D212846FDF7FDFD05220E212846FDF767
:10372000F8FD05220F212846FDF7F3FD4FF4604018
:10373000059003208DF8190002218DF8181000243F
:103740008DF81A408DF81B1005A92846FDF758FD85
:1037500001208DF818008DF81A40314E2D158DF886
:103760001B00059505A93046FDF74AFD2946304660
:10377000FDF7C0FDADF800404FF48270ADF80200D7
:10378000ADF80840ADF80C40ADF804406810ADF855
:103790000640ADF80A00ADF80E400720214CADF808
:1037A000100069462046FEF77FF901211E48FEF70A
:1037B0003EFA01212046FEF707FA08B070BD19490C
:1037C00008310A889207FCD5164A0C321080088806
:1037D000C007FCD01088704712480830018889075C
:1037E000FCD51049FF220C310A800288D207FCD098
:1037F0000888C0B27047012080F31088704700200D
:1038000080F3108870474FF480610548FDF774BD60
:103810004FF480610248FDF76DBD000000040240D6
:1038200000100240003800400030014070477047EF
:1038300070477047007870470170704700207047EC
:103840007047F84A18B111B1C2E902017047AFF2EE
:1038500023009060AFF22900D0607047F14A18B1A0
:1038600011B1C2E904017047AFF23B001061AFF241
:103870003D0050617047EB4A10B51388DC05FDD55B
:1038800018B111B1C2E9060110BDAFF25700906145
:10389000AFF25B00D06110BDE24A10B513889C0501
:1038A000FDD518B111B1C2E9060110BDAFF2730028
:1038B0009061AFF27300D06110BD10B54FF4385075
:1038C00000F07EFAC00700D0012010BD10B5002422
:1038D0004FF4385000F074FA10F0300F00D001248B
:1038E000204610BD10B54FF43854204600F068FA59
:1038F00020F08001204600F07EFA204600F060FAB9
:1039000040F080012046BDE8104000F074BA70B568
:1039100004464FF43856304600F052FA41064FF054
:10392000FF351AD520F03800012C10D040F03801B6
:10393000304600F060FAFFF7D5FF304600F040FA5D
:10394000012C07D000F0380038B1002070BD40F0E5
:103950003001EDE700F03000F6E7284670BD10B505
:1039600004464FF4385000F02BFAC0F38011217058
:1039700000F0380001220021202811D038280FD073
:10398000617010280ED018280CD020280AD0A17001
:10399000082809D0182807D0202805D0E17010BDCC
:1039A0006270EEE7A270F3E7E27010BD10B5027826
:1039B0000021012A00D140214278012A06D0C27894
:1039C0008078012A05D001280BD00CE041F03801A5
:1039D00009E0012802D041F0080104E041F018019B
:1039E00001E041F010014FF4385000F004FABDE856
:1039F000104077E710B54FF4B05000F0E1F90446FD
:103A00004FF4C05000F0DCF904EB002080B210BD90
:103A100010B5C1B2040A4FF4B05000F0ECF92146E1
:103A2000BDE810404FF4C05000F0E5B910B54FF4B8
:103A3000A85000F0C5F900F0F0044FF4B85000F0C1
:103A4000BFF904EB002080B210BD10B5040A00F0ED
:103A5000F0014FF4A85000F0CEF92146BDE8104027
:103A60004FF4B85000F0C7B9F0B585B04FF410640A
:103A700006226946204600F0DCF90422950102A9DD
:103A8000284600F0D6F94FF4A066042203A9304678
:103A900000F0CFF94FF47067042204A9384600F013
:103AA000C8F98021002000F0A6F9002000F088F974
:103AB00006226946204600F0E1F9042202A92846C0
:103AC00000F0DCF9042203A9304600F0D7F9042203
:103AD00004A9384600F0D2F905B0F0BD2DE9F04157
:103AE0000D4606460024FFF7BFFF4FF0FF38AEB18A
:103AF0000022B05C521C204452B244B2082AF8DBC7
:103B0000102C17DC002441F60877315D07EB4410D8
:103B100000F071F9641C64B2082CF6DBCDB1002111
:103B200008462A5C401C114440B249B20828F8DB20
:103B3000102902DD4046BDE8F081002441F6086608
:103B4000295D06EB441000F056F9641C64B2082CA1
:103B5000F6DB0020EFE72DE9F0410C46002102469C
:103B60004F1E08464FF498554FF4A056102A61D2C4
:103B7000DFE802F0080B1612191D212B35424549CA
:103B8000554D515AFFF770FF49E014B1204604F13A
:103B90000801BDE8F041A1E72088FFF756FF3EE0AD
:103BA000FFF744FF05E02088FFF732FF37E0FFF71B
:103BB00021FF208033E02088010A284600F01BF90D
:103BC0002178304600F017F929E0304600F0F8F887
:103BD0000646284600F0F4F806EB0020E9E7114815
:103BE00082782270C27862700279A2704279E270A3
:103BF00080792071617112E0FFF774FE0FE02046BA
:103C0000FFF7D4FE0BE02046FFF7A9FE07E020787F
:103C1000BDE8F0417BE6FFF759FE07E02070002089
:103C200089E7000044000020FFF747FEC0B241B220
:103C3000491CF3D138467EE770B504464FF4D8509E
:103C400000F0BEF820704FF4D05000F0B9F80546EF
:103C50004FF4C85000F0B4F805EB0020608070BD50
:103C600010B5044601784FF4D85000F0C4F86088CD
:103C7000010A4FF4C85000F0BEF8A178BDE810402A
:103C80004FF4D05000F0B7B8002000F099B810B54C
:103C9000044630F03A0002D04FF0FF3010BD002053
:103CA00000F08EF840EA0401002000F0A4F80020A3
:103CB00010BD10B50446014606224FF4106000F016
:103CC000B8F8042204F10E01900100F0B2F80422C9
:103CD00004F10A014FF4A06000F0ABF80422A11D2A
:103CE0004FF4706000F0A5F834480178A174417871
:103CF000E17481782175C07860753048401E007885
:103D0000A07510BD10B50446014606224FF41060A0
:103D100000F0B4F8042204F10E01900100F0AEF8B6
:103D2000042204F10A014FF4A06000F0A7F8042275
:103D3000A11D4FF4706000F0A1F82048A17C017033
:103D4000E17C4170217D8170617DC1701B49A07D46
:103D5000491E087010BD10B50C4606281DD2DFE8BC
:103D600000F003070B0F13172046FFF7CBFF12E0FD
:103D70002046FFF79EFF0EE02078BDE8104086E762
:103D8000FFF782FF207006E02046FFF769FF02E0A0
:103D90002046FFF751FF002010BD4FF0FF3010BD4F
:103DA00010B504464FF4385000F00AF8C0F3800113
:103DB000E170C0F34000A07010BD00003D00002085
:103DC00070B5A64C0546A068804720698047E16928
:103DD000C5F307408847E169C5F307208847E169D3
:103DE000E8B28847A0698047054660698047E06877
:103DF0008047284670BD70B5984C05460E46A068B1
:103E000080472069804745F00405E169C5F3074014
:103E10008847E169C5F307208847E169E8B2884728
:103E2000E1693046884760698047E068BDE87040D6
:103E300000472DE9F041894C06461746A0688846A0
:103E40000025804720698047E169C6F3074088471D
:103E5000E169C6F307208847E169F0B2884705E0C9
:103E6000A069804708F805006D1CADB2BD42F7D3CC
:103E700060698047E068BDE8F04100472DE9F04106
:103E8000764C06461746A06888460025804720697C
:103E9000804746F00406E169C6F307408847E169B8
:103EA000C6F307208847E169F0B2884706E000BF03
:103EB000E16918F8050088476D1CADB2BD42F7D323
:103EC00060698047E068BDE8F04100472DE9F041B6
:103ED00042F2080101EB401542F20811002601EB05
:103EE00040142846FFF76CFF07462046FFF768FF9F
:103EF00000EB072007043F0C09D02846FFF760FFBE
:103F000006462046FFF75CFF00EB062086B2BE4265
:103F1000E7D13046BDE8F0812DE9F04142F2086179
:103F200001EB401542F20871002601EB40142846CF
:103F3000FFF746FF07462046FFF742FF00EB07204A
:103F400007043F0C09D02846FFF73AFF06462046F3
:103F5000FFF736FF00EB062086B2BE42E7D13046BF
:103F6000D8E72DE9F0475FEA02088946064625D0E2
:103F700042F2085000EB46152846FFF721FF07469E
:103F800042F2084000EB46142046FFF719FF07EB0A
:103F9000002087B2380200EB4610424649461030F6
:103FA000FFF76CFF07EB080086B2310A2046FFF7E7
:103FB00022FFF1B22846BDE8F0471CE7BDE8F087D4
:103FC0002DE9F0475FEA020889460646F6D042F638
:103FD000081000EB46152846FFF7F2FE074642F6AA
:103FE000080000EB46142046FFF7EAFE07EB00202E
:103FF00087B2380200EB4610424649461830FFF7B8
:1040000018FF07EB080086B2310A2046FFF7F3FEDF
:10401000F1B22846BDE8F047EDE6CFE72DE9F041E3
:10402000044642F6081000EB44150E462846FFF7FA
:10403000C7FE074642F6080000EB44142046FFF78F
:10404000BFFE07EB0020304486B2310A2046FFF75E
:10405000D2FEF1B22846BDE8F041CCE64400002093
:1040600070B50C460988002505292FD1417840F20A
:10407000CF760A0281781143C278491C1302027973
:1040800089B21A43531EB34220D200232380012356
:1040900000F8013B2688761C2680560703D003EBE8
:1040A000D203DEB201E0C2F3C70600F8016B238839
:1040B0005B1C2380002300F017FE18B100F0F2F91A
:1040C000054604E020883044208000E0032528468F
:1040D00070BD38B50988002405290BD141780A0242
:1040E00081781143491C027989B21AB9C278FF2A32
:1040F00003D012B10324204638BD00228DF80120E0
:10410000C078FF280CD08DF8002001231A4668469D
:1041100000F0EAFD0028EED000F0C4F90446EAE71A
:1041200001208DF80000F0E72DE9F0410D460988E7
:104130000024052926D9417843790A028178114360
:10414000491C8EB2C178027942EA0122510704D09B
:10415000012101EBD201C9B201E0C2F3C701571E30
:10416000B7F5F66F0ED299420CD101233146801D6E
:1041700000F0BAFD18B100F095F9044603E00520FF
:10418000288000E003242046BDE8F08170B50C468D
:104190000988002505292FD1417840F2CF760A02FF
:1041A00081781143C278491C1302027989B21A43FB
:1041B000531EB34220D200232380022300F8013B88
:1041C00023885B1C2380530704D0012303EBD20315
:1041D000DEB201E0C2F3C70600F8016B23885B1C66
:1041E000238000F0D7FD18B100F05CF9054604E02B
:1041F00020883044208000E00325284670BD10B59B
:1042000009880024052902D00324204610BD4178E6
:1042100001230A028178C01C1143491C89B21A4645
:1042200000F022FD0028F0D000F03CF90446ECE755
:1042300070B50D460988002406291DD341780A026D
:1042400081781143C278491C1302027989B21A435A
:104250004379561E772E0FD85606360E9E420BD146
:104260000123801D00F000FD18B100F01BF9044689
:1042700003E00520288000E00324204670BD70B5CF
:104280000C4609880026052925D1417805790A02BE
:1042900081781143491C6A1E89B27C2A1BD80022EE
:1042A0002280032200F8012B22880023521C228046
:1042B0006A0000F8012B2288521C22802A4600F056
:1042C000D3FC18B100F0EEF8064605E0208800EBBC
:1042D0004500208000E00326304670BD2DE9F04106
:1042E0000446088800270D460A2842D360782679BC
:1042F0000102A078227A0843401C1FFA80F8E07877
:1043000046EA00266079731E0102A0790843401C2A
:1043100081B2E0797C2B42EA0022607A28D83AB355
:10432000792A25D8B0EB420F22D1012304F10A00EB
:1043300000F09AFC98B90021298017212170298862
:10434000601C491C2980710000F8011B298800238A
:10435000491C29803246414600F086FC18B100F025
:10436000A1F8074605E0288800EB4600288000E019
:1043700003273846BDE8F081F8B50C4609880026C9
:10438000052932D141780902ADF800108178BDF8D5
:1043900000201143ADF80010BDF80010491CADF825
:1043A0000010C178057945EA0125691E7C291CD2D7
:1043B00000212180042100F8011B21882A46491C84
:1043C0002180690000F8011B2188491C2180BDF86B
:1043D000001000F02AFC18B100F064F8064605E071
:1043E000208800EB4500208000E003263046F8BD21
:1043F00070B51D46134602460026A81C202813D27D
:104400001248114C02700122228001B1FF2141703B
:10441000022121804DB12A461946801C01F01EF868
:1044200020882844208000E00426304670BD70B506
:10443000054C0D4605492288401C01F00FF82088E4
:10444000401C2880002070BD64000020785F0020A0
:1044500070B5082A01D9AFF30080CC08654201EBA2
:10446000C505AB4001219140491EA9400519025DD7
:104470006E7842EA06228A431A430255100A68708F
:1044800070BD10B5CB085C4201EBC4040121914022
:10449000C25C1844407842EA0020E040491E0840CF
:1044A000C0B210BD002804D0012803D0072803D0D3
:1044B00004207047022070470620704770B5094DF0
:1044C000FF231A4605F5807606E000BF10F8014B81
:1044D00054402A5D5A40335D491E89B2F6D242EA01
:1044E000032070BD2358000870B515460846002407
:1044F0000822294600F023F901280DD1B5F5964F81
:1045000001D9232003E072496800B1FBF0F080B2CA
:1045100000F0C0F9012800D00324204670BD6D4989
:1045200010B5002048700146012000F0F1F8BDE808
:10453000104001F04BB910B50021084600F0E8F832
:10454000BDE8104001F02AB92DE9F041614C074661
:104550001646A08888460025FF2801D9AFF30080C1
:10456000A088042804D3A1885B48FFF7A7FF18B1EF
:1045700005252846BDE8F081574800783870A088A6
:10458000C01E30805448401CC8F80000F1E770B5E8
:10459000504C034600256078012802D005252846A6
:1045A00070BD491E0126A160084666800B706188B7
:1045B000114461806188FFF781FF6188464A531882
:1045C000491C61801870010A60880244401C6080A8
:1045D000117026700121002000F09AF8DFE738B54D
:1045E0003C4C0025207808B1AFF30080684600F00D
:1045F0000FF9607830B1384A012807D0022810D06E
:10460000032801D101F0E2F8284638BD0020A0803F
:104610009DF80000A1880A44491CA1801070022066
:104620000BE0A088FF2807D89DF80010A08802445E
:10463000401CA0801170E5E703206070E2E770B5D0
:10464000244C00256078012801D0AFF30080207849
:1046500010B101281CD104E00021012000F058F81D
:1046600016E0608850B1A068007800F0C3F8A06838
:10467000401CA0606088401E608009E0032000F0BC
:1046800032F805460021012000F042F80020207099
:10469000284670BD70B50F4D0024687870B10228AF
:1046A0000BD003280DD0687858B16878022808D05C
:1046B0006878032805D0AFF30080012000F013F8DC
:1046C000044601F06BF801206870204670BD0000C0
:1046D000A07F170068000020985F00200B49002091
:1046E000487001207047094901224A70087010463D
:1046F00070470649024600204B78002B04D008780A
:1047000010700020487001207047000074000020E5
:1047100070B50C465B4D40F2255108B1012200E016
:1047200000222846FDF749F940F227710CB1012219
:1047300000E000222846BDE87040FDF73EB9F0B524
:104740000E46012187B00846FCF728FF0121102002
:10475000FCF74CFF4C4F07220A213846FCF7D9FDE5
:10476000072209213846FCF7D4FD4FF4C0600490BD
:1047700002208DF814008DF8150000248DF81640E5
:1047800001258DF8175004A93846FCF739FD00962D
:10479000ADF808400C203B4EADF80640ADF80A00DD
:1047A000ADF80440ADF80C4069463046FCF7F5FF23
:1047B000012240F225513046FDF7FFF80121304635
:1047C000FDF75CF840213046FDF716F94FF4A06084
:1047D000FCF7B4FA25208DF818008DF81940032055
:1047E0008DF81A008DF81B5006A8FCF7ACFA07B03C
:1047F0000120F0BD10B5234C01462046FDF764F8BA
:1048000040212046FDF7F1F80028F9D0012010BD25
:1048100010B504461B48FDF75BF82070012010BD61
:1048200070B5184C40F2255529462046FDF7E7F8AB
:10483000012806D129462046FDF700F913480068F3
:10484000804740F2277529462046FDF7D8F8012811
:1048500008D129462046FDF7F1F80D480068BDE86B
:104860007040004770BD70B5064D044681B22846C1
:10487000FDF72AF840212846FDF7B7F80028F9D0BF
:10488000204670BD0010014000000240A000002042
:10489000A40000207FB5044601210420FCF79CFE03
:1048A000254844F62061254D00680194B0FBF1F1E4
:1048B000491EADF800100024ADF80840ADF80240E4
:1048C00069462846FDF762FC01212846FDF7BCFC3D
:1048D0004FF4C060FCF732FA1E208DF80C008DF802
:1048E0000D4003208DF80E0001208DF80F0003A865
:1048F000FCF729FA01212846FDF7F1FF00220121EA
:104900002846FDF7CCFF00212846FDF7B7FC04B090
:10491000012070BD10B5094C01212046FDF7D3FFE1
:10492000002808D001212046FDF7D9FF044800687F
:10493000BDE81040004710BD1800002000080040EE
:10494000A80000202DE9F05F4FF4007AF74E0546ED
:10495000D04651463046FCF7CFFC4FF4807B594699
:104960003046FCF7C9FC26224FF40011F048FCF752
:1049700019F8EF4C14F81F0F617841EA0020FBF79B
:1049800073FE2846FBF707FFA078E17841EA002490
:104990002046FBF7A8FEE74D002741462F70304622
:1049A000FCF7AAFCDFF89093DFF8908303E0494618
:1049B0004046FDF7DDFA28780128F8D1E049404665
:1049C000FDF735FB00214046FDF783FA4946404696
:1049D000FDF7E3FA002210214046FDF7EFFAB94651
:1049E0002F7051463046FCF785FC59463046FCF79F
:1049F00081FC042000EB4400074600F099FED149F9
:104A0000064600200D8811E031F8102006EB400327
:104A1000120A06F8102011F810205A70421CA24207
:104A200003D201EB40004088454090B2A042EBD356
:104A300006EB44004FEA152B80F801B085700D227B
:104A4000C2700A220271C0480078012805D8BAB2A3
:104A500031460020FEF760FA39E0022837D30027FC
:104A6000DFF8E8828A4618E03AF81700010A404663
:104A7000FCF72AFF40214046FCF7B7FF0028F9D099
:104A80003AF817104046FCF71FFF40214046FCF75C
:104A9000ACFF0028F9D07F1CBFB2A742E4D359462F
:104AA00044464046FCF710FF40212046FCF79DFF9E
:104AB0000028F9D029462046FCF706FF4021204671
:104AC000FCF793FF0028F9D0A1A000F03FFD984922
:104AD0003046C839A1F80090BDE8F05F00F000BE94
:104AE00038B5934C0025C83C2088B0F5837F25D08D
:104AF00008DCA0F20110052839D2DFE800F0151714
:104B0000191B1D00B0F5007F20D006DCA0F58070D9
:104B1000073815D001282AD114E0A0F5007001381B
:104B200019D0012823D119E000200CE001200AE06F
:104B3000022008E0032006E0042004E0052002E053
:104B4000062000E00720BDE83840FBE6FCF75AF8F5
:104B5000FBF76EFC0BE0FCF7CEF808E07D48022284
:104B60004FF4C001006800906846FBF7BAFF25804B
:104B700038BD2DE9F84F824626224FF400116C48CB
:104B8000FBF710FF6A4C94F8230094F8241041EAD4
:104B9000002094F8251041EA0023002002465146E7
:104BA000009000F0E5F900F064FA0025DFF8A88134
:104BB0004FF4FA7B4FF00E09A4F1C8075B4E18E0E2
:104BC00000F073FA08214046FCF780FB88B1584694
:104BD000FBF72DFB08214046FCF778FB48B14D461A
:104BE00084F8009002224FF4C0015148FBF779FF8E
:104BF00002E038880028E3D0FFF772FF4FF480719D
:104C00003046FCF779FB4FF400713046FCF772FB3D
:104C1000012252494648FBF7C5FE012D02D12178F9
:104C20005145E6D00020BDE8F88F30B50023C1B172
:104C30008C180B2C15D84A4C2488091B3C4CDC3CA6
:104C40000CE000BF34F81150521E2D0A00F8015B31
:104C500014F8115000F8015B92B2491C002AF1D1FE
:104C600000E00123184630BD2DE9F0471546044603
:104C7000A1B34819652832D839482D4F40880E1AFB
:104C8000C83FB3B1012B2CD125E000BF37F8160087
:104C9000000A04F8010B17F8160004F8010B761C43
:104CA00040214046FCF7A1FE0028F9D06D1EADB2B0
:104CB00001E0DFF89880002DE8D112E014F8010B34
:104CC0006D1E000227F8160014F8011BADB2084350
:104CD00027F81600761C002DF0D102E0FFE74FF018
:104CE00001094846BDE8F0872DE9F0410646002756
:104CF0001446B9B30819112848D8491E8DB293B18A
:104D0000012B44D13FE0082C01DD082000E02046C3
:104D1000C2B213482946801DFFF7B3FB083506F8D9
:104D2000010BADB2083C002CEDDC30E0000C024081
:104D30007461002005000020200000101064024073
:104D400020800010480100200400002000100140D5
:104D50000A000000245A0008000402402600200037
:104D60007600002012E000BF16F8013B082C01DDA0
:104D7000082000E02046C2B229467348FFF768FBCE
:104D80000835ADB2083C002CEEDC00E001273846C7
:104D9000BDE8F0812DE9F0410646002714B2C9B103
:104DA0008818112816D8491E8DB210E0082C01DD94
:104DB000082000E02046C2B263482946801EFFF763
:104DC00060FB083C083506F8010B24B2ADB2002C9C
:104DD000ECDC00E001273846DAE770B5B2B00546F2
:104DE000C821684600F053FB4FF44270FEF7E8FF1D
:104DF00000287DD0132812D0172814D01C280CD1DD
:104E0000002152A000F0A2FB0020FEF742F801288A
:104E100003D1002151A000F099FB32B070BD0020F9
:104E2000FDF782FFF9E74FF402742046FEF7C8FF52
:104E3000C00703D001212046FEF7DDFF4FF480625A
:104E400049490020FEF7F7F8474C6179891D8142F6
:104E5000E3D1A079A842E0D14FF480714348FCF738
:104E60004BFAE1794FF6FF750529D6D026DC0129EA
:104E7000D3D00229D1D003293ED00429CDD1207A24
:104E8000617A05EA00200143A07AE67A05EA00206B
:104E9000064332466846FFF7C8FE0422214600203A
:104EA000FEF73AF80222A11D0020FEF735F805EAC8
:104EB000460269460020FEF72FF8AEE72A480D307B
:104EC000062936D01029A8D1217A05EA0122617A73
:104ED0001143A27A05EA0223E27A1A435FF0010342
:104EE000FFF7C2FE042220490020FEF715F800E07B
:104EF00027E00222A11DDDE7207A617A05EA002081
:104F00000143A07AE27A05EA0020024305EA42055D
:104F100000232A466846FFF7A7FE04221249002014
:104F2000FDF7FAFF0222A11D0020FDF7F5FF2A463A
:104F3000BFE7217A05EA0122617A114301231A466B
:104F4000CEE7FBF775FA68E77C00002025643A435A
:104F50006C6F7365576169740D0A000025643A43EC
:104F60006C6F7365640D0A0074610020000C0240D0
:104F70002DE9F0411D46069B1746064641B1F7292B
:104F800006D8754C0846217100211EB1012E15D09E
:104F900002252EE0714A2261714A6261714AE26023
:104FA000714AC4E9062171492162714961627149FE
:104FB000A1622A463946FFF797FA12E06E4A22614B
:104FC0006E4A62616E4AE2606E4AC4E906216E4929
:104FD00021626E4961626E49A1622A46394600F03B
:104FE000D9F8050005D1FFF779FB28B166710120DA
:104FF00020702846BDE8F0810325FAE710B5421E6F
:105000007E2A26D8544A2C3299B1002302EBC304DD
:1050100064680CB18C4205D102F8330002EBC30086
:10502000416002E05B1C102BF0DB102B0FD1042041
:1050300010BD12F83130834206D1002002F8310051
:1050400002EBC101486002E0491C1029F1DB00209D
:1050500010BD022010BD404810B501780024012980
:1050600002D00624204610BDC0690028FAD080472F
:10507000F8E770B5384D00242878012802D00624BE
:10508000204670BD2869804700202870F8E710B5D9
:10509000314C207818B1012805D0062010BD606978
:1050A000804701202070002010BD38B52A4C2078A0
:1050B00008B1062038BD6846FFF71BFB012849D11F
:1050C0009DF80000F0B3012802D0022842D10FE081
:1050D000214AA369921D911CC81F984790BB607814
:1050E0002179884200D068BB0220FFF7FCFA31E04A
:1050F000A0680121184B0278A270E17000212C33C6
:1051000013F8315065B1954207D103EBC1014A68EC
:105110001149891D9047E07002E0491C1029EFDB1E
:10512000607878B1E07880B10021E180A17841F029
:105130008002A1680A70E288521C92B2E280885410
:10514000E08800E006E0401CE080D4E90213E28839
:1051500020799847002038BD800000201F450008B6
:10516000374500088F45000849450008DF4500081D
:105170003F46000895460008C1510008D951000873
:105180002F520008EB5100087352000851530008D9
:10519000F953000870B5B04D084600240A211646A0
:1051A000E97007223146FFF7CAFA012805D144F613
:1051B0002060FFF76FFB012800D00324204670BD5C
:1051C00010B500210120FFF7A3FAA3490020487081
:1051D000BDE81040FFF787BA10B500210846FFF779
:1051E00097FABDE8104000F0D9BA2DE9F0419A4C89
:1051F00007461646A08888460025FF2801D9AFF348
:105200000080A088032804D3A188A06800F009F9D1
:1052100018B105252846BDE8F081A06810F8011BEB
:105220003970A188891E3180C8F80000F2E770B596
:10523000894C03460025607810B10525284670BDCD
:10524000491E0126E1600846E6800B70E1881144A2
:10525000E180E18800F0E5F80146E088A2680244B8
:10526000401CE0801170267001210020FFF750FAE9
:10527000E4E7F8B5784C0027207808B1AFF3008058
:105280006846FFF7C5FA60780025012690B301282B
:1052900002D002285AD139E000F098FA9DF80000B7
:1052A0003A2807D00D2808D0A0F13001092907D8E5
:1052B000C8B20DE0A570A58048E00220607045E00E
:1052C000A0F14101052902D83738C0B200E0FF2023
:1052D000A17811B1012939D10DE0A188FF2905D8A4
:1052E000A288A16800018854A6702FE0657000F0C4
:1052F00055FA2BE021E0A288A16811440A78024304
:105300000A70A088401CA080A5701FE09DF80000D6
:10531000E178884207D100F041FA65700120FFF77B
:10532000E2F9074612E03A2801D065700EE0A57058
:10533000A580667000F04AFA08E09DF800003A285F
:1053400004D100F043FAA580A57066703846F8BD18
:1053500070B5414C0026607808B1AFF3008020782A
:105360000025052846D2DFE800F041030A31360067
:105370003A20FFF73FFA02202070A5703AE0E0885B
:10538000F0B1A1783448C06811B1012932D108E0E8
:105390000078000900F052F8FFF72CFA0120A07005
:1053A00028E0007800F00F0000F048F8FFF722FA3C
:1053B000E068401CE060A570E088401EE08019E0D5
:1053C0000D20FFF717FA0320207013E0E078FFF7B5
:1053D00011FA0420F8E725700320FFF784F9064648
:1053E00000210120FFF794F9257003E0002101203E
:1053F000FFF78EF9304670BD174810B54178012986
:1054000009D0022907D04178012906D04078022826
:1054100003D0AFF300800021417000F0BFF90020FD
:1054200010BD002204E000BF10F8013B1A44D2B2C4
:10543000491E89B2F8D25042C0B2704710B509284F
:1054400001D8303004E0A0F10A01052902D8373034
:10545000C0B210BDAFF300802C01002040EA010370
:105460009B0703D009E008C9121F08C0042AFAD21A
:1054700003E011F8013B00F8013B521EF9D27047DE
:10548000D2B201E000F8012B491EFBD27047002286
:10549000F6E710B513460A4604461946FFF7F0FF33
:1054A000204610BD30B50B460146002020220124C5
:1054B00009E021FA02F59D4205D303FA02F5491BE2
:1054C00004FA02F52844151EA2F10102F1DC30BDF8
:1054D000064C074D06E0E06840F0010394E8070041
:1054E00098471034AC42F6D3FAF752FE285A000817
:1054F000485A000870B58C1810F8015B15F00703C6
:1055000001D110F8013B2A1106D110F8012B03E05C
:1055100010F8016B01F8016B5B1EF9D12B0705D464
:105520000023521E0DD401F8013BFAE710F8013BAD
:10553000CB1A921C03E013F8015B01F8015B521EC9
:10554000F9D5A142D8D3002070BD00000FB4054B9F
:1055500010B503A9044A029800F018F810BC5DF8D1
:1055600014FB0000674800083C01002002E008C866
:10557000121F08C1002AFAD170477047002001E0CD
:1055800001C1121F002AFBD1704700002DE9FF4F17
:1055900089B09B460446002506E025280BD05A46D4
:1055A0000B999047641C6D1C20780028F5D10DB034
:1055B0002846BDE8F08F0027B8460122474900E0A1
:1055C000074314F8013F203B02FA03F00842F7D1E9
:1055D00020782E2819D114F8010F47F004072A2843
:1055E0000ED06FF02F022078A0F1300109290CD8DD
:1055F00008EB880102EB410100EB0108641CF2E7B3
:105600000A98641C50F8048B0A9020780028CED0A9
:10561000642808D0692806D075281ED05A460B99F0
:1056200090476D1C58E00A994FF00A0901C90A9188
:10563000002802DA40422D2102E0390504D52B2151
:105640008DF82010012103E0F90704D02021F7E7AD
:105650008A4608AE0DE00021FAE70A994FF00A09E0
:1056600001C90A91F7E74946FFF71CFF303106F8F8
:10567000011D0028F7D1ADEB060000F120097807E5
:1056800001D44FF00108C84502DDA8EB090000E095
:1056900000208046002706E008A85A46C05D0B9906
:1056A00090476D1C7F1C5745F6DB04E030205A46BE
:1056B0000B9990476D1CB8F10001A8F10108F5DCC9
:1056C00005E016F8010B5A460B9990476D1CB9F18D
:1056D0000001A9F10109F4DC641C65E70928010057
:1056E00010B5002821D0114B0022001F196803E0DB
:1056F000814203D80A4649680029F9D152B113689A
:10570000841A9C4204D1006818441060104602E0DC
:10571000506000E0186039B102680B1A934203D15F
:105720000B681A4402604968416010BD40010020C6
:10573000F0B50B30154D20F007010024144A0FE09E
:1057400003688B420BD38B4205D95E1A4318476816
:10575000C3E9006700E04368136002C004E0021D73
:1057600010680028ECD12046002802D1286808B132
:105770000020F0BD064A07481060074A121A22F0BE
:105780000702C0E9002401202860D7E74401002077
:1057900040010020DC610020D891002010B50A4CA7
:1057A00001212046FDF79BF8002201212046FDF74C
:1057B00076F800212046FCF72BFD2046BDE810407E
:1057C0000021FCF75BBD00000008004010B50A4C4A
:1057D00001212046FDF783F8012211462046FDF7FE
:1057E0005EF800212046FCF713FD2046BDE810407E
:1057F0000121FCF743BD000000080040100000003C
:105800000000000010000000000000000000000088
:105810000000000000000000000000000000000088
:1058200000000100C1814001C0804101C0804100F1
:10583000C1814001C0804100C1814000C18140015F
:10584000C0804101C0804100C1814000C181400150
:10585000C0804100C1814001C0804101C080410041
:10586000C1814001C0804100C1814000C18140012F
:10587000C0804100C1814001C0804101C080410021
:10588000C1814000C1814001C0804101C080410010
:10589000C1814001C0804100C1814000C1814001FF
:1058A000C0804101C0804100C1814000C1814001F0
:1058B000C0804100C1814001C0804101C0804100E1
:1058C000C1814000C1814001C0804101C0804100D0
:1058D000C1814001C0804100C1814000C1814001BF
:1058E000C0804100C1814001C0804101C0804100B1
:1058F000C1814001C0804100C1814000C18140019F
:10590000C0804101C0804100C1814000C18140018F
:10591000C0804100C1814001C0804101C080410080
:10592000C1814000C0C101C30302C2C60607C7054A
:10593000C5C404CC0C0DCD0FCFCE0E0ACACB0BC9FB
:105940000908C8D81819D91BDBDA1A1EDEDF1FDDDB
:105950001D1CDC14D4D515D71716D6D21213D311AB
:10596000D1D010F03031F133F3F23236F6F737F5AB
:105970003534F43CFCFD3DFF3F3EFEFA3A3BFB393B
:10598000F9F83828E8E929EB2B2AEAEE2E2FEF2D3B
:10599000EDEC2CE42425E527E7E62622E2E323E1EB
:1059A0002120E0A06061A163A3A26266A6A767A50B
:1059B0006564A46CACAD6DAF6F6EAEAA6A6BAB697B
:1059C000A9A86878B8B979BB7B7ABABE7E7FBF7D5B
:1059D000BDBC7CB47475B577B7B67672B2B373B12B
:1059E0007170B0509091519353529296565797556B
:1059F0009594549C5C5D9D5F9F9E5E5A9A9B5B99BB
:105A0000595898884849894B8B8A4A4E8E8F4F8DBA
:105A10004D4C8C448485458747468682424383416A
:105A20008180400001000000485A0008000000206A
:105A300048010000F4540008C45A0008480100203E
:105A400090A001007C550008614317EF2D0102036F
:105A500004041506070809847A030A79140216C09B
:105A6000100801025735353030132D381B082F042C
:105A70001A31041A33041A35041A39040911321977
:105A80000261022B023211132F44330804137943AD
:105A9000330803137F423308101A3108320613FF0C
:105AA000413308171ADD1029641361403308051AC1
:105AB000D308320F1A292029741A8D080138139837
:045AC0005F02102051
:040000050800018965
:00000001FF
